:100000000C94EE000C94E40B0C940B010C940B017B
:100010000C94BE0B0C940B010C940B010C940B0173
:100020000C940B010C940B010C94550B0C940B01CC
:100030000C940B010C940B010C940B010C940B0110
:100040000C940B010C940B010C940B010C940B0100
:100050000C940B01DF02EA02EA02EA02EA02EA0277
:10006000EA02EA02EA02EA02EA02EA02EA02EA0230
:10007000EA02EA02EA02EA02EA02EA02EA02EA0220
:10008000EA02EA02EA02EA02EA02EA02EA02EA0210
:10009000EA02EA02EA02EA02EA02EA02BB02EA022F
:1000A000EA02EA02EA02EA02EA02EA02EA02EA02F0
:1000B000EA02EA02EA02EA02EA02EA02EA02EA02E0
:1000C000EA02EA02EA02EA02EA02EA02EA02EA02D0
:1000D000EA02EA02EA02EA02EA02EA02EA02EA02C0
:1000E000EA02EA02EA02EA02EA02EA02EA02EA02B0
:1000F000EA02EA02EA02EA02EA02EA02EA02EA02A0
:10010000EA02EA02EA02EA02EA02EA02EA02EA028F
:10011000EA02EA02EA02EA02EA02EA02EA02EA027F
:10012000EA02EA02E902BD02BF02C102EA02C30218
:10013000EA02EA02C502C702C902CB02CD02CF021F
:10014000D102D302D502D702D902DB02EA02EA02C7
:10015000EA02E102EA02EA02EA02E302E502EA0254
:10016000DD02E702202020CDC0D1D2D0CEC9CAC83E
:1001700000C8CCCFD3CBDCD1CEC22FCEC1CED0CE17
:10018000D200202020203CC3CED0DFD23E20202031
:10019000002020203CC2DBCACBDED7C5CDDB3E0031
:1001A00020C1CED0D2CEC2DBC520CEC3CDC8002068
:1001B0002020203CC3CED0C8D23E202020002020CA
:1001C000203CC2DBCACBDED7C5CD3E0020D2CECF8D
:1001D000CEC2DBC920CEC3CECDDC000011241FBEB1
:1001E000CFE5D8E0DEBFCDBF10E0A0E6B0E0E6EAA4
:1001F000F1E202C005900D92AC3DB107D9F711E0D4
:10020000ACEDB0E001C01D92AD30B107E1F70E9446
:10021000EB0A0C94D1100C9400008C9A8FB582627A
:100220008FBD8EB58B618EBD17BC16BC19BC18BCBA
:10023000089597BD86BD9695879599BD88BD7093A5
:10024000DD006093DC0008958091DC009091DD007A
:10025000009759F001979093DD008093DC000097A0
:1002600021F417BC16BC19BC18BC08958D9A8823BC
:1002700011F495980895843608F0959A0895CF92D0
:10028000DF92EF92FF92CF93C82F6A017B01AF9864
:1002900082958F7090E0E5B3BC0162707070660F5C
:1002A000771FAC0141705070440F551F440F551F0C
:1002B000440F551F462B572B9C01247030703595E9
:1002C0002795242B352B969587959695879596950A
:1002D0008795822B932B880F991F880F991FE37C9A
:1002E0008E2B85BBAE9AC701B6010E94250C611505
:1002F000710539F0CB0125E02A95F1F7000001974F
:10030000D1F7AE9885E08A95F1F7000025E02A95AF
:10031000F1F7000085E08A95F1F7000025E02A95C5
:10032000F1F7000085E08A95F1F70000CF702C2FDF
:1003300030E0E5B3A90142705070440F551FC90168
:1003400081709070880F991F880F991F880F991FCF
:10035000482B592BC9018470907095958795842BF3
:10036000952B369527953695279536952795282BE5
:10037000392B220F331F220F331FE37C2E2B25BB7B
:10038000AE9A6115710539F025E02A95F1F7000064
:1003900061507040C9F7AE9885E08A95F1F700008A
:1003A00025E02A95F1F7000085E08A95F1F7000035
:1003B00025E02A95F1F7000085E08A95F1F7000025
:1003C000CF91FF90EF90DF90CF90089581E040E0D3
:1003D00050E860EC74E40E943F0182E040E050E8A5
:1003E00060EC74E40E943F01089584B3806C84BB88
:1003F000AF98AE9884B38C6384BB82E390E0EFE95E
:10040000FFE03197F1F700C000000197C1F780E2EB
:1004100040E050E060E272E40E943F0185B3837CDB
:10042000806385BBAE9A88E290E0F5E0FA95F1F73B
:1004300000000197D1F7AE9888E240E050E060E21A
:1004400072E40E943F018CE040E050E068E172E419
:100450000E943F0181E040E050E860EC74E40E94BB
:100460003F0186E040E050E060E272E40E943F011C
:1004700082E040E050E860EC74E40E943F0108959F
:10048000AF9A282F22952F7030E095B3B901627092
:100490007070660F771FA90141705070440F551F8F
:1004A000440F551F440F551F642B752BA901447031
:1004B000507055954795462B572B36952795369571
:1004C000279536952795242B352B220F331F220F86
:1004D000331F937C292B25BBAE9A28E230E095E0B0
:1004E0009A95F1F7000021503040C9F7AE988F700F
:1004F00090E065B3AC0142705070440F551F9C01F1
:1005000021703070220F331F220F331F220F331F31
:10051000242B352BAC014470507055954795242BF6
:10052000352B969587959695879596958795822BE9
:10053000932B880F991F880F991F637C862B85BB8F
:10054000AE9A88E290E025E02A95F1F70000019745
:10055000D1F7AE980895482F50E04855504048389C
:100560005105C0F5465D5F4FFA01EE0FFF1F059084
:10057000F491E02D09948FEF089580EA089582E4C4
:10058000089581EA089585E4089585EA089586EA44
:1005900008958BE4089587EA08958DE4089588E42A
:1005A00008958FE4089588EA089580E5089583E426
:1005B000089584E5089589EA089580EB089588E513
:1005C00008958BEA08958EEA089582E6089581EBF6
:1005D000089581E40895CF93DF93EC018881882307
:1005E00041F021960E94AB020E944002899188232B
:1005F000C9F7DF91CF9108950F931F93CF93DF93A6
:10060000EC018B0180E840E050E060E272E40E947F
:100610003F01CE010E94EB0280EC40E050E060E23E
:1006200072E40E943F01C8010E94EB02DF91CF916A
:100630001F910F9108958CE085BD8FEF83BD89B721
:10064000806889BF089590B39A708091DE008230EF
:10065000A1F1833018F48823E1F057C0883021F0ED
:100660008A3009F052C03DC09A3041F48091DF00D9
:100670008F5F8093DF001092E00047C0992309F05C
:1006800044C08091E0008F5F8093E0001092DF0013
:1006900048C0983041F48091DF008F5F8093DF0085
:1006A0001092E00032C0923081F58091E0008F5FBF
:1006B0008093E0001092DF0034C0992341F48091D0
:1006C000DF008F5F8093DF001092E0001EC09A3041
:1006D000E1F48091E0008F5F8093E0001092DF00F2
:1006E00020C0923041F48091DF008F5F8093DF0063
:1006F0001092E0000AC0983041F48091E0008F5FD2
:100700008093E0001092DF000CC08091DF00843005
:1007100041F481E08093E1001092DF001092E0004C
:100720000BC08091E000843039F482E08093E100D6
:100730001092DF001092E0009093DE0080991FC0BD
:100740008091E200882309F58091E3009091E40014
:1007500001969093E4008093E30085369105A8F01C
:100760008091E100882389F483E08093E100109276
:10077000E4001092E30081E08093E200089510927B
:10078000E4001092E3001092E20008958091E100ED
:100790001092E10008950F931F93CF93C82F8B0100
:1007A00083E090E00E94AD0CE82FF92F309751F0D4
:1007B000C08312830183C43028F0CF010E94430D0F
:1007C000E0E0F0E08E2F9F2FCF911F910F910895C1
:1007D000FC018081813009F448C0813038F08230DA
:1007E00009F482C0833009F0FDC0BDC04AB381E086
:1007F00090E09C01018002C0220F331F0A94E2F7AF
:10080000242B2ABB4BB39C01018002C0220F331F53
:100810000A94E2F7209524232BBBAFE7B7E01197AA
:10082000F1F700C000002AB3018002C0880F991FB1
:100830000A94E2F7809582238ABB87E191E00197D1
:10084000F1F700C0000029B330E0018002C0359507
:1008500027950A94E2F781E020FD80E0A7E6B6E064
:100860001197F1F700C00000089547B381E090E0D0
:100870009C01018002C0220F331F0A94E2F7242B4F
:1008800027BB48B39C01018002C0220F331F0A948A
:10089000E2F72095242328BBAFE7B7E01197F1F7E3
:1008A00000C0000027B3018002C0880F991F0A947E
:1008B000E2F78095822387BB87E191E00197F1F70A
:1008C00000C0000026B330E0018002C035952795B6
:1008D0000A94E2F781E020FD80E0A7E6B6E01197F8
:1008E000F1F700C00000089544B381E090E09C015E
:1008F000018002C0220F331F0A94E2F7242B24BB8D
:1009000045B39C01018002C0220F331F0A94E2F715
:100910002095242325BBAFE7B7E01197F1F700C07E
:10092000000024B3018002C0880F991F0A94E2F7E7
:100930008095822384BB87E191E00197F1F700C0A5
:10094000000023B330E0018002C0359527950A945A
:10095000E2F781E020FD80E0A7E6B6E01197F1F72D
:1009600000C00000089541B381E090E09C01018047
:1009700002C0220F331F0A94E2F7242B21BB42B39B
:100980009C01018002C0220F331F0A94E2F72095D8
:10099000242322BBAFE7B7E01197F1F700C00000B6
:1009A00021B3018002C0880F991F0A94E2F7809555
:1009B000822381BB87E191E00197F1F700C000003D
:1009C00020B330E0018002C0359527950A94E2F704
:1009D00081E020FD80E0A7E6B6E01197F1F700C0C6
:1009E0000000089580E00895FC0188E041E050E0B7
:1009F00060FFB4C09081913099F1913038F092301D
:100A000009F458C0933009F060C17EC09AB39A01CE
:100A1000018002C0220F331F0A94E2F7292B2ABB60
:100A20009BB39A01018002C0220F331F0A94E2F7A0
:100A3000209529232BBB90E29A95F1F79AB39A015E
:100A4000018002C0220F331F0A94E2F72095292368
:100A50002ABBAFEFB0E01197F1F700C0000035C13D
:100A600097B39A01018002C0220F331F0A94E2F764
:100A7000292B27BB98B39A01018002C0220F331F94
:100A80000A94E2F72095292328BBB0E2BA95F1F742
:100A900097B39A01018002C0220F331F0A94E2F734
:100AA0002095292327BBAFEFB0E01197F1F700C0E5
:100AB00000000BC194B39A01018002C0220F331FC2
:100AC0000A94E2F7292B24BB95B39A01018002C056
:100AD000220F331F0A94E2F72095292325BBB0E2A9
:100AE000BA95F1F794B39A01018002C0220F331F27
:100AF0000A94E2F72095292324BBAFEFB0E01197C9
:100B0000F1F700C00000E1C091B39A01018002C07A
:100B1000220F331F0A94E2F7292B21BB92B39A01CB
:100B2000018002C0220F331F0A94E2F72095292387
:100B300022BBB0E2BA95F1F791B39A01018002C0ED
:100B4000220F331F0A94E2F72095292321BBAFEF30
:100B5000B0E01197F1F700C00000B7C0908191306C
:100B6000A1F1913038F0923009F45AC0933009F075
:100B7000ACC081C09AB39A01018002C0220F331F1A
:100B80000A94E2F7292B2ABB9BB39A01018002C089
:100B9000220F331F0A94E2F7209529232BBBAFEED7
:100BA000B0E01197F1F700C000009AB39A010180FC
:100BB00002C0220F331F0A94E2F7209529232ABB93
:100BC000B5E3BA95F1F7000080C097B39A010180B0
:100BD00002C0220F331F0A94E2F7292B27BB98B3D8
:100BE0009A01018002C0220F331F0A94E2F7209578
:100BF000292328BBAFEEB0E01197F1F700C0000049
:100C000097B39A01018002C0220F331F0A94E2F7C2
:100C10002095292327BBB5E3BA95F1F7000055C00D
:100C200094B39A01018002C0220F331F0A94E2F7A5
:100C3000292B24BB95B39A01018002C0220F331FD8
:100C40000A94E2F72095292325BBAFEEB0E0119777
:100C5000F1F700C0000094B39A01018002C0220F96
:100C6000331F0A94E2F72095292324BBB5E3BA95F4
:100C7000F1F700002AC091B39A01018002C0220F4F
:100C8000331F0A94E2F7292B21BB92B39A0101800A
:100C900002C0220F331F0A94E2F72095292322BBBA
:100CA000AFEEB0E01197F1F700C0000091B39A01E8
:100CB000018002C0220F331F0A94E2F720952923F6
:100CC00021BBB5E3BA95F1F700006695815009F0B4
:100CD0008FCE08950F931F93CF93DF93EC018A017A
:100CE0000E94F4048881813021F1813080F18230CA
:100CF00091F0833009F073C080B390E0098002C0A6
:100D0000959587950A94E2F780FD69C00115110554
:100D100009F057C064C083B390E0098002C0959584
:100D200087950A94E2F780FD5AC001151105D1F5A7
:100D300056C086B390E0098002C0959587950A94C5
:100D4000E2F780FD4CC001151105E9F448C089B3F4
:100D500090E0098002C0959587950A94E2F780FD9E
:100D60003EC001151105D9F185E08A95F1F7000023
:100D700089B390E0098002C0959587950A94E2F7BF
:100D800080FFF2CF2CC085E08A95F1F7000086B392
:100D900090E0098002C0959587950A94E2F780FF5C
:100DA000F2CF1DC085E08A95F1F7000083B390E093
:100DB000098002C0959587950A94E2F780FFF2CFEB
:100DC0000EC085E08A95F1F7000080B390E00980BD
:100DD00002C0959587950A94E2F780FFF2CFDF91E4
:100DE000CF911F910F910895FC0120E030E060E069
:100DF00070E041E050E08081813009F455C08130DD
:100E000038F0823009F49CC0833009F030C1E4C06E
:100E1000AAB3CA01018002C0880F991F0A94E2F7A1
:100E20008A2B8ABBABB3CA01018002C0880F991F0D
:100E30000A94E2F780958A238BBB80E28A95F1F7CA
:100E4000AAB3CA01018002C0880F991F0A94E2F771
:100E500080958A238ABB90E39A95F1F789B390E055
:100E6000018002C0959587950A94E2F780FD0CC039
:100E7000CA01022E02C0880F991F0A94E2F78095DA
:100E800090956823792309C0CA01022E02C0880FF9
:100E9000991F0A94E2F7682B792B8BED90E001976C
:100EA000F1F700C00000E3C0A7B3CA01018002C08F
:100EB000880F991F0A94E2F78A2B87BBA8B3CA014F
:100EC000018002C0880F991F0A94E2F780958A2357
:100ED00088BB90E29A95F1F7A7B3CA01018002C0DE
:100EE000880F991F0A94E2F780958A2387BB80E3D5
:100EF0008A95F1F786B390E0018002C095958795B9
:100F00000A94E2F780FD0CC0CA01022E02C0880FCD
:100F1000991F0A94E2F7809590956823792309C078
:100F2000CA01022E02C0880F991F0A94E2F7682BAB
:100F3000792B8BED90E00197F1F700C0000097C08E
:100F4000A4B3CA01018002C0880F991F0A94E2F776
:100F50008A2B84BBA5B3CA01018002C0880F991FE8
:100F60000A94E2F780958A2385BB90E29A95F1F77F
:100F7000A4B3CA01018002C0880F991F0A94E2F746
:100F800080958A2384BB80E38A95F1F783B390E050
:100F9000018002C0959587950A94E2F780FD0CC008
:100FA000CA01022E02C0880F991F0A94E2F78095A9
:100FB00090956823792309C0CA01022E02C0880FC8
:100FC000991F0A94E2F7682B792B8BED90E001973B
:100FD000F1F700C000004BC0A1B3CA01018002C0FC
:100FE000880F991F0A94E2F78A2B81BBA2B3CA012A
:100FF000018002C0880F991F0A94E2F780958A2326
:1010000082BB90E29A95F1F7A1B3CA01018002C0B8
:10101000880F991F0A94E2F780958A2381BB80E3A9
:101020008A95F1F780B390E0018002C0959587958D
:101030000A94E2F780FD0CC0CA01022E02C0880F9C
:10104000991F0A94E2F7809590956823792309C047
:10105000CA01022E02C0880F991F0A94E2F7682B7A
:10106000792B8BED90E00197F1F700C000002F5F26
:101070003F4F2031310509F0BECE862F972F0895BE
:10108000FC010097C1F081E08083CB0197709295BD
:1010900082958F7089279F70892781836F70707008
:1010A00081E792E0689F9001699F300D789F300D35
:1010B0001124338322830895379A81EC87B90895E8
:1010C000369A349BFECF84B190E045B1342F20E0B6
:1010D000822B932B2091E500820F911D0895809320
:1010E000E5000895CF93DF93C82F8150853028F510
:1010F000E091E600CE1709F1EE2379F0F0E0EE0F73
:10110000FF1FEE0FFF1FEE0FFF1FE05AFF4F04807F
:10111000F581E02D87EE90E00995C093E600D0E0E0
:10112000CC0FDD1FCC0FDD1FCC0FDD1FC05ADF4FF2
:10113000EA81FB8187EE90E00995DF91CF910895D8
:101140008093E90008958091E6008F5F863009F46E
:1011500081E008958091E600815009F485E00895CA
:101160008091E9001092E9000895AB01E091E6005A
:10117000EE2379F0F0E0EE0FFF1FEE0FFF1FEE0FF2
:10118000FF1FE05AFF4F0680F781E02D67EE70E009
:10119000099508950E94E601089508950F931F93FD
:1011A000CF93DF93813009F445C0813020F0823045
:1011B00009F049C044C00E9460088C0181E190E0C0
:1011C0000E94AD0CC82FD92F8DB79EB70A970FB6C6
:1011D000F8949EBF0FBE8DBFEDB7FEB73196ADB789
:1011E000BEB71196CC93D18380E190E09383828344
:1011F00080E990E095838483C80162E470E00E94F6
:10120000990C77836683918780870E94EC0D8DB758
:101210009EB70A960FB6F8949EBF0FBE8DBF8CEA9C
:1012200090E06C2F7D2F0E94FC028C2F9D2F0E943E
:10123000430D09C00E94A3080E94A00804C00E9498
:10124000AA080E94A008DF91CF911F910F910895E5
:10125000CF93DF93EC0184E691E00E94090C99831F
:1012600088830E94E601DF91CF910895FC0180817F
:101270009181009711F00E94430D0895FB01208198
:101280003181813059F0813018F0823081F40BC007
:10129000C90163EB70E00E94FC0208950E94A3085C
:1012A0000E94A00808950E94AA080E94A00808951C
:1012B0000F931F93CF93DF938C010E94E60182E08E
:1012C00090E00E94AD0CC82FD92FF801D183C083C4
:1012D00081E791E00E94090C99838883DF91CF9187
:1012E0001F910F910895CF93DF93EC01E881F9816D
:1012F00080819181009711F00E94430D888199812E
:10130000009711F00E94430DDF91CF9108950F9344
:101310001F93CF93DF93DB01CD91DC911197813047
:1013200009F443C0813068F0823009F44FC0833043
:1013300009F05CC081E09091D200911180E080932F
:10134000D2008091D200813019F424EB30E002C049
:1013500023EC30E0EDB7FEB738970FB6F894FEBF38
:101360000FBEEDBF31960AEE10E0ADB7BEB71296D4
:101370001C930E93119782E190E0938382833583CF
:1013800024838091D300868317820E94EC0DEDB7F1
:10139000FEB738960FB6F894FEBF0FBEEDBF88813A
:1013A0009981B8010E94FC0221C08091D200813055
:1013B00029F40E94A3080E94A00818C08091D300BD
:1013C0008436A0F48F5F8093D30010C08091D20048
:1013D000813029F40E94AA080E94A00807C08091C9
:1013E000D300823018F081508093D300DF91CF91E9
:1013F0001F910F9108950F931F93CF93DF938C014B
:101400000E94E60186E090E00E94AD0CC82FD92F23
:10141000F801D183C08380EA91E00E94090C99838E
:10142000888381E991E00E94090C9B838A8382E88A
:1014300091E00E94090C9D838C83DF91CF911F91D5
:101440000F9108950F931F93CF93DF938C01FC01AD
:10145000C081D18188819981009711F00E94430D4C
:101460008A819B81009711F00E94430D8C819D81A0
:10147000009711F00E94430DF8018081918100973F
:1014800011F00E94430DDF91CF911F910F910895AC
:10149000DB01ED91FC9111978130D9F0813058F04A
:1014A0008230E1F08330F1F481E09091D400911129
:1014B00080E08093D400808191812091D400222308
:1014C00019F46281738102C0648175810E94FC02FB
:1014D00008950E94A3080E94A00808950E94AA08E7
:1014E0000E94A00808950F931F93CF93DF938C0160
:1014F0000E94E60186E090E00E94AD0CC82FD92F33
:10150000F801D183C0838CEC91E00E94090C99838F
:1015100088838EEB91E00E94090C9B838A838FEA7B
:1015200091E00E94090C9D838C83DF91CF911F91E4
:101530000F9108950F931F93CF93DF938C01FC01BC
:10154000C081D18188819981009711F00E94430D5B
:101550008A819B81009711F00E94430D8C819D81AF
:10156000009711F00E94430DF8018081918100974E
:1015700011F00E94430DDF91CF911F910F910895BB
:10158000DB01ED91FC9111978130D9F0813058F059
:101590008230E1F08330F1F481E09091D500911137
:1015A00080E08093D500808191812091D500222315
:1015B00019F46281738102C0648175810E94FC020A
:1015C00008950E94A3080E94A00808950E94AA08F6
:1015D0000E94A00808950E945C0886E10E946F089E
:1015E0000E941B030E940D010E94F5010E94E6016A
:1015F00084E60E94360181E00E9472087894C0E07F
:10160000C23339F480E060E070E00E94B508C0E0C9
:1016100001C0CF5F0E94C603823081F08330D1F0D9
:10162000813019F586E490E068E270E00E941901CB
:1016300081E060E070E00E94B50817C086E490E0A9
:1016400068E270E00E94190182E060E070E00E94B0
:10165000B5080BC08CE390E060E971E00E941901CD
:1016600083E060E070E00E94B5080E94B008882323
:1016700041F00E94720880E060E070E00E94B508CE
:10168000C0E08FE39CE90197F1F700C00000B8CFFC
:101690008DE083BF8FEF8CBF89B7826089BF0895CB
:1016A00089B78D7F89BF13BE08951F920F920FB621
:1016B0000F921124CF92DF92EF92FF922F933F93DC
:1016C0004F935F936F937F938F939F93AF93BF934A
:1016D000EF93FF93809108018F5F809308018D3312
:1016E000C1F5C0900401D0900501E0900601F09092
:1016F0000701C701B6012CE330E040E050E00E9452
:101700007A0CDC01CB018093FC009093FD00A09348
:10171000FE00B093FF008091000190910101A09123
:101720000201B0910301C80ED91EEA1EFB1EC09231
:101730000001D0920101E0920201F09203011092A7
:1017400004011092050110920601109207011092F7
:101750000801FF91EF91BF91AF919F918F917F9180
:101760006F915F914F913F912F91FF90EF90DF909C
:10177000CF900F900FBE0F901F9018951F920F9251
:101780000FB60F9211242F933F934F935F936F9354
:101790007F938F939F93AF93BF93EF93FF930E9499
:1017A00023030E942401FF91EF91BF91AF919F917C
:1017B0008F917F916F915F914F913F912F910F90FA
:1017C0000FBE0F901F9018951F920F920FB60F9299
:1017D00011248F939F93AF93BF93809104019091B5
:1017E0000501A0910601B09107010196A11DB11D4F
:1017F0008093040190930501A0930601B093070123
:10180000BF91AF919F918F910F900FBE0F901F903E
:1018100018950F931F93CF93DF938C010E94E30DD4
:10182000009751F001960E94AD0CC82FD92FCE0120
:10183000B8010E94DC0D02C0C0E0D0E08C2F9D2FCB
:10184000DF91CF911F910F91089533D088F09F576A
:1018500090F0B92F9927B751A0F0D1F0660F771FFC
:10186000881F991F1AF0BA95C9F712C0B13081F0DC
:101870003AD0B1E0089537C0672F782F8827B85F36
:1018800039F0B93FCCF3869577956795B395D9F73D
:101890003EF490958095709561957F4F8F4F9F4F47
:1018A000089557FD9058440F551F59F05F3F71F050
:1018B0004795880F97FB991F61F09F3F79F08795B7
:1018C0000895121613061406551FF2CF4695F1DF40
:1018D00008C0161617061806991FF1CF86957105D0
:1018E000610508940895E894BB2766277727CB0104
:1018F00097F90895629FD001739FF001829FE00DD8
:10190000F11D649FE00DF11D929FF00D839FF00D7E
:10191000749FF00D659FF00D9927729FB00DE11D2A
:10192000F91F639FB00DE11DF91FBD01CF01112407
:101930000895AA1BBB1B51E107C0AA1FBB1FA61716
:10194000B70710F0A61BB70B881F991F5A95A9F768
:1019500080959095BC01CD010895CF93DF93AC01A4
:101960008230910510F442E050E0E0910B01F091DB
:101970000C0120E030E0A0E0B0E024C08081918143
:1019800084179507D0F08417950771F482819381AD
:10199000109729F013969C938E9312972CC09093D6
:1019A0000C0180930B0127C02115310519F0821716
:1019B000930718F49C01BD01EF0192818381DF013F
:1019C000E92FF82F3097D1F621153105F9F0C9012B
:1019D000841B950B8430910580F48A819B8161156D
:1019E000710521F0FB019383828304C090930C0165
:1019F00080930B01FE01329642C0FE01E80FF91FF1
:101A00004193519302979983888339C0809109014A
:101A100090910A01009741F48091D8009091D900EB
:101A200090930A01809309012091D6003091D7004C
:101A30002115310541F42DB73EB78091DA00909120
:101A4000DB00281B390BE0910901F0910A01E21734
:101A5000F30798F42E1B3F0B2417350770F0CA01CB
:101A600002962817390748F08E0F9F1F90930A019E
:101A7000809309014193519302C0E0E0F0E0CF016F
:101A8000DF91CF9108950F931F93CF93DF939C0124
:101A9000009709F48CC0DC01129713961C921E92D9
:101AA000129760910B0170910C016115710589F419
:101AB0008D919C911197820F931F20910901309174
:101AC0000A012817390769F5B0930A01A0930901A3
:101AD0006EC0FB0140E050E001C0FC01EA17FB07CB
:101AE00030F482819381AF010097B9F71FC0E901FB
:101AF0002297FB83EA8308811981C901800F911F16
:101B00008E179F0759F480819181800F911F029653
:101B100099838883828193819B838A8341155105B0
:101B200029F4B0930C01A0930B0141C0FA01B383D7
:101B3000A283C191D191EC0FFD1FAE17BF0781F4B5
:101B4000F901929182918C0F9D1F0296DA011196F4
:101B50009C938E938281938113969C938E9312977C
:101B6000E0E0F0E002C0FB01BC01DB0112968D91C8
:101B70009C9113970097B9F7CB0102962D913C9158
:101B80001197820F931F2091090130910A012817A4
:101B9000390769F4309729F410920C0110920B0167
:101BA00002C01382128270930A0160930901DF91CF
:101BB000CF911F910F910895FB01DC0105900D92CB
:101BC0000020E1F70895FC0105900020E9F78095D9
:101BD00090958E0F9F1F0895AEE0B0E0E2EFFDE01C
:101BE0000C94A8100D891E898F89988D26E02C836E
:101BF0001A83098397FF02C080E090E801979E83D3
:101C00008D83AE01455E5F4FCE010196698D7A8D61
:101C10000E941C0E4D815E8157FD0AC02F813885C0
:101C2000421753070CF49A01020F131FF801108298
:101C30002E96E4E00C94C410ADE0B0E0E2E2FEE0E9
:101C40000C949A103C017D876C875A01FC01178225
:101C50001682838181FFC8C12E010894411C511C4A
:101C6000F3019381EC85FD8593FD859193FF81912F
:101C7000FD87EC87882309F4B3C1853241F493FDD5
:101C8000859193FF8191FD87EC87853229F490E05F
:101C9000B3010E941010E4CFFF24EE2410E01032B4
:101CA000B0F48B3269F08C3228F4803251F08332F8
:101CB00071F40BC08D3239F0803349F411602CC0BF
:101CC0001260146029C0186027C0106125C017FD7C
:101CD0002EC0282F20532A3098F416FF08C08F2DCD
:101CE000880FF82EFF0CFF0CF80EF20E15C08E2D8B
:101CF000880FE82EEE0CEE0CE80EE20E10620CC01F
:101D00008E3221F416FD6CC1106406C08C3611F4BD
:101D1000106802C0883659F4EC85FD8593FD8591E5
:101D200093FF8191FD87EC87882309F0B8CF982F26
:101D30009554933018F09052933038F424E030E00A
:101D4000A20EB31E3FE339830FC0833631F08337D1
:101D500081F0833509F05AC022C0F5018081898362
:101D600022E030E0A20EB31E21E0C22ED12C4201AF
:101D700014C092E0292E312C2A0C3B1CF5018080E6
:101D8000918016FF03C06F2D70E002C06FEF7FEFF0
:101D9000C4010E9405106C0151011F7715C082E03B
:101DA000282E312C2A0C3B1CF5018080918016FFD7
:101DB00003C06F2D70E002C06FEF7FEFC4010E947F
:101DC000FA0F6C011068510113FD1CC006C080E2BF
:101DD00090E0B3010E941010EA948E2D90E0C81696
:101DE000D906A8F30FC0F40117FD859117FF819163
:101DF0004F0190E0B3010E941010E110EA940894A2
:101E0000C108D108C114D10471F7E7C0843611F0BC
:101E1000893651F5F50117FF07C080819181A281B4
:101E2000B38124E030E008C080819181AA2797FD2A
:101E3000A095BA2F22E030E0A20EB31E012F0F763C
:101E4000B7FF08C0B095A095909581959F4FAF4F73
:101E5000BF4F0068BC01CD01A2012AE030E00E9422
:101E60003C10D82ED4183FC0853721F41F7E2AE0BD
:101E700030E020C0197F8F36A9F0803720F48835F4
:101E800009F0AEC00BC0803721F0883709F0A8C038
:101E900001C0106114FF09C0146007C014FF08C01E
:101EA000166006C028E030E005C020E130E002C046
:101EB00020E132E0F50117FF07C060817181828166
:101EC000938144E050E006C06081718180E090E041
:101ED00042E050E0A40EB51EA2010E943C10D82E94
:101EE000D418012F0F7706FF09C00E7FDF1430F4DE
:101EF00004FF06C002FD04C00F7E02C01D2D01C0FC
:101F00001F2D802F90E004FF0CC0FE01ED0DF11D90
:101F10002081203311F4097E09C002FF06C01E5F34
:101F200005C086789070009709F01F5F802E992475
:101F300003FD12C000FF0DC0FD2C1E1550F4FE0C59
:101F4000F11A1E2D06C080E290E0B3010E9410102D
:101F50001F5F1E15C0F304C01E1510F4E11A01C066
:101F6000EE2484FE0FC080E390E0B3010E941010C5
:101F700082FE1FC081FE03C088E590E010C088E7A4
:101F800090E00DC0C40186789070009791F081FCBC
:101F900002C080E201C08BE207FD8DE290E0B30158
:101FA0000E94101006C080E390E0B3010E94101060
:101FB000FA94DF14C0F3DA94F201ED0DF11D808183
:101FC00090E0B3010E941010DD20A9F706C080E266
:101FD00090E0B3010E941010EA94EE20C1F740CEC9
:101FE000F3018681978102C08FEF9FEF2D96E2E18A
:101FF0000C94B610FC010590615070400110D8F7A8
:10200000809590958E0F9F1F0895FC016150704040
:1020100001900110D8F7809590958E0F9F1F08951D
:102020000F931F93CF93DF938C01EB018B8181FF83
:102030001BC082FF0DC02E813F818C819D8128179E
:10204000390764F4E881F9810193F983E88306C0D4
:10205000E885F985802F0995009731F48E819F815D
:1020600001969F838E8302C00FEF1FEFC801DF919F
:10207000CF911F910F910895FA01AA27283051F1AD
:10208000203181F1E8946F936E7F6E5F7F4F8F4FA9
:102090009F4FAF4FB1E03ED0B4E03CD0670F781F08
:1020A000891F9A1FA11D680F791F8A1F911DA11DED
:1020B0006A0F711D811D911DA11D20D009F4689426
:1020C0003F912AE0269F11243019305D3193DEF6CE
:1020D000CF010895462F4770405D4193B3E00FD084
:1020E000C9F7F6CF462F4F70405D4A3318F0495D6F
:1020F00031FD4052419302D0A9F7EACFB4E0A69552
:102100009795879577956795BA95C9F70097610573
:10211000710508959B01AC010A2E069457954795C9
:1021200037952795BA95C9F7620F731F841F951FBE
:10213000A01D08952F923F924F925F926F927F92CF
:102140008F929F92AF92BF92CF92DF92EF92FF92C7
:102150000F931F93CF93DF93CDB7DEB7CA1BDB0B73
:102160000FB6F894DEBF0FBECDBF09942A88398818
:1021700048885F846E847D848C849B84AA84B9841F
:10218000C884DF80EE80FD800C811B81AA81B9812B
:10219000CE0FD11D0FB6F894DEBF0FBECDBFED013F
:0621A0000895F894FFCF42
:1021A60000000000000000000100CA08CD08CE08AB
:1021B6000200730A9A0AC00A0300FB09220A480AA7
:1021C6000400280936093E090500580973098709DC
:1021D600252E32752E252E327556202020202020C1
:1021E600202020202020202020202000524564523C
:1021F6004157000020202020202025752020202067
:1022060020200020202020203C25753E2020202054
:0C22160020000101010100000D0120006A
:00000001FF
