:100000000C943D000C9464090C945A000C945A0012
:100010000C9440090C945A000C945A000C945A0009
:100020000C945A000C945A000C94D9080C945A0061
:100030000C945A000C945A000C945A000C945A00D8
:100040000C945A000C945A000C945A000C945A00C8
:100050000C945A0020D2CECFCEC2DBC920CEC3CE64
:10006000CDDC002020203CC2DBCACBDED7C5CD3E94
:1000700000C2CACBDED7C5CD000011241FBECFE51C
:10008000D8E0DEBFCDBF10E0A0E6B0E0E0ECFCE1E0
:1000900002C005900D92A43BB107D9F710E0A4EB84
:1000A000B0E001C01D92A93CB107E1F70E948308AE
:1000B0000C945E0E0C9400008D9A882311F4959890
:1000C0000895843608F0959A08951F93182FCB0150
:1000D000BA01AF98212F22952F7030E0A5B3F90116
:1000E000E270F070EE0FFF1FA90141705070440FD5
:1000F000551F440F551F440F551FE42BF52BA90125
:100100004470507055954795E42BF52BA9015695F1
:10011000479556954795569547959F01242B352B26
:10012000220F331F220F331FA37C2A2B25BBAE9A2D
:100130000E94A4096115710539F0CB0125E02A95CB
:10014000F1F700000197D1F7AE9885E08A95F1F7B5
:10015000000025E02A95F1F7000085E08A95F1F787
:10016000000025E02A95F1F7000085E08A95F1F777
:1001700000001F70812F90E0E5B3AC014270507019
:10018000440F551F9C0121703070220F331F220F26
:10019000331F220F331F422B532B9C0124703070CE
:1001A00035952795422B532B9C01369527953695EF
:1001B000279536952795CA01822B932B880F991F77
:1001C000880F991F2E2F237C822B85BBAE9A611539
:1001D000710539F025E02A95F1F700006150704073
:1001E000C9F7AE9885E08A95F1F7000025E02A95D9
:1001F000F1F7000085E08A95F1F7000025E02A95E7
:10020000F1F7000085E08A95F1F700001F9108954D
:1002100081E040E050E860EC74E40E94650082E018
:1002200040E050E860EC74E40E946500089584B3F7
:10023000806C84BBAF98AE9884B38C6384BB82E33C
:1002400090E0EFE9FFE03197F1F700C0000001977F
:10025000C1F780E240E050E060E272E40E94650095
:1002600085B3837C806385BBAE9A87E290E0F5E03E
:10027000FA95F1F7000001972FEF8F3F9207B9F73A
:10028000AE9888E240E050E060E272E40E946500CF
:100290008CE040E050E068E172E40E94650081E09B
:1002A00040E050E860EC74E40E94650086E040E0C5
:1002B00050E060E272E40E94650082E040E050E8B5
:1002C00060EC74E40E9465000895AF9A282F22958F
:1002D0002F7030E095B3B90162707070660F771FB0
:1002E000A90141705070440F551F440F551F440F12
:1002F000551F642B752BA901447050705595479577
:10030000642B752BA901569547955695479556959B
:1003100047959B01242B352B220F331F220F331FB0
:10032000937C292B25BBAE9A28E230E095E09A9584
:10033000F1F7000021503040C9F7AE988F7090E07F
:1003400065B3AC0142705070440F551F9C01217081
:100350003070220F331F220F331F220F331F422B07
:10036000532B9C012470307035952795422B532BCD
:100370009C01369527953695279536952795CA0180
:10038000822B932B880F991F880F991F262F237C70
:10039000822B85BBAE9A87E290E025E02A95F1F7A3
:1003A000000001972FEF8F3F9207B9F7AE9808959D
:1003B0008D3C91F18E3C90F4853C31F1863C38F4D3
:1003C000823CD1F1833CF1F08C37B9F519C08A3CFD
:1003D000F9F08B3CF9F0893C81F518C0873D31F18B
:1003E000883D38F48F3CE1F08F3CC0F0823D29F528
:1003F00019C08C3DF9F08E3DB9F08B3DF1F418C079
:100400008FEF089581EA089585E4089586EA0895B6
:100410008BE4089587EA089588E408958FE40895A9
:1004200088EA089584E5089580EB08958BEA08959D
:100430008EEA089582E6089582E40895CF93DF93CB
:10044000EC018881882341F021960E94D8010E9406
:10045000650189918823C9F7DF91CF9108950F93A2
:100460001F93CF93DF93EC018B0180E840E050E0D5
:1004700060E272E40E946500CE010E941E0280ECE0
:1004800040E050E060E272E40E946500C8010E9412
:100490001E02DF91CF911F910F9108958CE085BDD1
:1004A0008FEF83BD89B7806889BF089590B39A7034
:1004B0008091B4008230A1F1833018F48823E1F0F8
:1004C00057C0883021F08A3009F052C03DC09A30C0
:1004D00041F48091B5008F5F8093B5001092B60013
:1004E00047C0992309F044C08091B6008F5F809384
:1004F000B6001092B50047C0983041F48091B50025
:100500008F5F8093B5001092B60032C0923081F5B3
:100510008091B6008F5F8093B6001092B50033C013
:10052000992341F48091B5008F5F8093B5001092BC
:10053000B6001EC09A30E1F48091B6008F5F8093C0
:10054000B6001092B5001FC0923041F48091B50002
:100550008F5F8093B5001092B6000AC0983041F4C6
:100560008091B6008F5F8093B6001092B5000BC0EB
:100570008091B500843039F4109260001092B5007B
:100580001092B6000BC08091B600843039F481E03F
:10059000809360001092B5001092B6009093B40062
:1005A0000895809160009FEF9093600008951F93DD
:1005B000CF93DF93182FEB0183E090E00E942C0A89
:1005C000E82FF92F9F012115310551F01083D283B7
:1005D000C183143028F0C9010E94C60A20E030E02F
:1005E000822F932FDF91CF911F910895FC0180817D
:1005F000813009F448C0813038F0823009F482C07B
:10060000833009F0FDC0BDC04AB381E090E09C0199
:10061000018002C0220F331F0A94E2F7242B2ABB69
:100620004BB39C01018002C0220F331F0A94E2F7F2
:10063000209524232BBBAFE7B7E01197F1F700C05B
:1006400000002AB3018002C0880F991F0A94E2F7C4
:10065000809582238ABB87E191E00197F1F700C082
:10066000000029B330E0018002C0359527950A9437
:10067000E2F781E020FD80E0A7E6B6E01197F1F710
:1006800000C00000089547B381E090E09C01018024
:1006900002C0220F331F0A94E2F7242B27BB48B372
:1006A0009C01018002C0220F331F0A94E2F72095BB
:1006B000242328BBAFE7B7E01197F1F700C0000093
:1006C00027B3018002C0880F991F0A94E2F7809532
:1006D000822387BB87E191E00197F1F700C000001A
:1006E00026B330E0018002C0359527950A94E2F7E1
:1006F00081E020FD80E0A7E6B6E01197F1F700C0A9
:100700000000089544B381E090E09C01018002C0A4
:10071000220F331F0A94E2F7242B24BB45B39C011C
:10072000018002C0220F331F0A94E2F72095242390
:1007300025BBAFE7B7E01197F1F700C0000024B385
:10074000018002C0880F991F0A94E2F780958223E6
:1007500084BB87E191E00197F1F700C0000023B36B
:1007600030E0018002C0359527950A94E2F781E0D8
:1007700020FD80E0A7E6B6E01197F1F700C0000089
:10078000089541B381E090E09C01018002C0220FF6
:10079000331F0A94E2F7242B21BB42B39C01018052
:1007A00002C0220F331F0A94E2F72095242322BBB4
:1007B000AFE7B7E01197F1F700C0000021B3018067
:1007C00002C0880F991F0A94E2F78095822381BBAB
:1007D00087E191E00197F1F700C0000020B330E01D
:1007E000018002C0359527950A94E2F781E020FD4B
:1007F00080E0A7E6B6E01197F1F700C00000089589
:1008000080E00895FC0148E081E090E060FFB4C022
:100810002081213099F1213038F0223009F458C07C
:10082000233009F060C17EC05AB39C01018002C030
:10083000220F331F0A94E2F7252B2ABB5BB39C01DE
:10084000018002C0220F331F0A94E2F7209525236E
:100850002BBB20E22A95F1F75AB39C01018002C01C
:10086000220F331F0A94E2F7209525232ABBAFEF0E
:10087000B0E01197F1F700C0000035C157B39C01FB
:10088000018002C0220F331F0A94E2F7252B27BBF9
:1008900058B39C01018002C0220F331F0A94E2F773
:1008A0002095252328BBB0E2BA95F1F757B39C01F8
:1008B000018002C0220F331F0A94E2F720952523FE
:1008C00027BBAFEFB0E01197F1F700C000000BC1FC
:1008D00054B39C01018002C0220F331F0A94E2F737
:1008E000252B24BB55B39C01018002C0220F331F6E
:1008F0000A94E2F72095252325BBB0E2BA95F1F7DB
:1009000054B39C01018002C0220F331F0A94E2F706
:100910002095252324BBAFEFB0E01197F1F700C07D
:100920000000E1C051B39C01018002C0220F331FBF
:100930000A94E2F7252B21BB52B39C01018002C02F
:10094000220F331F0A94E2F72095252322BBB0E241
:10095000BA95F1F751B39C01018002C0220F331FF9
:100960000A94E2F72095252321BBAFEFB0E0119761
:10097000F1F700C00000B7C020812130A1F1213083
:1009800038F0223009F45AC0233009F0ACC081C0DD
:100990005AB39C01018002C0220F331F0A94E2F770
:1009A000252B2ABB5BB39C01018002C0220F331FA1
:1009B0000A94E2F7209525232BBBAFEEB0E0119708
:1009C000F1F700C000005AB39C01018002C0220F61
:1009D000331F0A94E2F7209525232ABBB5E3BA9585
:1009E000F1F7000080C057B39C01018002C0220FC4
:1009F000331F0A94E2F7252B27BB58B39C010180D3
:100A000002C0220F331F0A94E2F72095252328BB4A
:100A1000AFEEB0E01197F1F700C0000057B39C01B2
:100A2000018002C0220F331F0A94E2F7209525238C
:100A300027BBB5E3BA95F1F7000055C054B39C014C
:100A4000018002C0220F331F0A94E2F7252B24BB3A
:100A500055B39C01018002C0220F331F0A94E2F7B4
:100A60002095252325BBAFEEB0E01197F1F700C02C
:100A7000000054B39C01018002C0220F331F0A946E
:100A8000E2F72095252324BBB5E3BA95F1F70000E2
:100A90002AC051B39C01018002C0220F331F0A9467
:100AA000E2F7252B21BB52B39C01018002C0220F2B
:100AB000331F0A94E2F72095252322BBAFEEB0E066
:100AC0001197F1F700C0000051B39C01018002C0F2
:100AD000220F331F0A94E2F72095252321BBB5E3AB
:100AE000BA95F1F70000415011F066958FCE089548
:100AF0000F931F93CF93DF93EC018A010E940204AE
:100B00008881813021F1813080F1823091F0833011
:100B100009F073C080B390E0098002C09595879575
:100B20000A94E2F780FD69C00115110509F057C06C
:100B300064C083B390E0098002C0959587950A94BC
:100B4000E2F780FD5AC001151105D1F556C086B3F4
:100B500090E0098002C0959587950A94E2F780FDA0
:100B60004CC001151105E9F448C089B390E0098033
:100B700002C0959587950A94E2F780FD3EC0011565
:100B80001105D9F185E08A95F1F7000089B390E06D
:100B9000098002C0959587950A94E2F780FFF2CF0D
:100BA0002CC085E08A95F1F7000086B390E00980BB
:100BB00002C0959587950A94E2F780FFF2CF1DC099
:100BC00085E08A95F1F7000083B390E0098002C0C8
:100BD000959587950A94E2F780FFF2CF0EC085E0E5
:100BE0008A95F1F7000080B390E0098002C09595E6
:100BF00087950A94E2F780FFF2CFDF91CF911F91A2
:100C00000F910895FC0180E090E020E030E041E0A9
:100C100050E06081613009F455C0613038F06230D5
:100C200009F49CC0633009F030C1E4C0AAB3BA0132
:100C3000018002C0660F771F0A94E2F76A2B6ABB35
:100C4000ABB3BA01018002C0660F771F0A94E2F7C6
:100C500060956A236BBB60E26A95F1F7AAB3BA01AB
:100C6000018002C0660F771F0A94E2F760956A233D
:100C70006ABBA0E3AA95F1F769B370E0018002C0F6
:100C8000759567950A94E2F760FD0CC0BA01082ECD
:100C900002C0660F771F0A94E2F7609570952623CD
:100CA000372309C0BA01082E02C0660F771F0A94C5
:100CB000E2F7262B372BABEDB0E01197F1F700C030
:100CC0000000E3C0A7B3BA01018002C0660F771F1E
:100CD0000A94E2F76A2B67BBA8B3BA01018002C08D
:100CE000660F771F0A94E2F760956A2368BBB0E24B
:100CF000BA95F1F7A7B3BA01018002C0660F771F5A
:100D00000A94E2F760956A2367BB60E36A95F1F79E
:100D100066B370E0018002C0759567950A94E2F7AA
:100D200060FD0CC0BA01082E02C0660F771F0A943E
:100D3000E2F7609570952623372309C0BA01082E83
:100D400002C0660F771F0A94E2F7262B372BABED14
:100D5000B0E01197F1F700C0000097C0A4B3BA014A
:100D6000018002C0660F771F0A94E2F76A2B64BB0A
:100D7000A5B3BA01018002C0660F771F0A94E2F79B
:100D800060956A2365BBB0E2BA95F1F7A4B3BA01E6
:100D9000018002C0660F771F0A94E2F760956A230C
:100DA00064BB60E36A95F1F763B370E0018002C051
:100DB000759567950A94E2F760FD0CC0BA01082E9C
:100DC00002C0660F771F0A94E2F76095709526239C
:100DD000372309C0BA01082E02C0660F771F0A9494
:100DE000E2F7262B372BABEDB0E01197F1F700C0FF
:100DF00000004BC0A1B3BA01018002C0660F771F8B
:100E00000A94E2F76A2B61BBA2B3BA01018002C067
:100E1000660F771F0A94E2F760956A2362BBB0E21F
:100E2000BA95F1F7A1B3BA01018002C0660F771F2E
:100E30000A94E2F760956A2361BB60E36A95F1F773
:100E400060B370E0018002C0759567950A94E2F77F
:100E500060FD0CC0BA01082E02C0660F771F0A940D
:100E6000E2F7609570952623372309C0BA01082E52
:100E700002C0660F771F0A94E2F7262B372BABEDE3
:100E8000B0E01197F1F700C00000019680319105A4
:100E900009F0BFCE822F932F0895FC010097C1F077
:100EA00081E08083CB019770929582958F7089271E
:100EB0009F70892781836F70707021E732E0629F95
:100EC000C001639F900D729F900D112493838283C4
:100ED0000895379A81EC87B90895369A349BFECFEE
:100EE00024B130E045B1942F80E0282B392B80913C
:100EF000B700280F311D822F932F08958093B700DC
:100F000008951F93182F833058F5E09171008E17C4
:100F100039F1EF3F89F0FF27E7FDF095EE0FFF1F56
:100F2000EE0FFF1FEE0FFF1FEF59FF4F0480F581FB
:100F3000E02D80E090E0099510937100E12FFF27EC
:100F4000E7FDF095EE0FFF1FEE0FFF1FEE0FFF1FE7
:100F5000EF59FF4F0280F381E02D80E090E009958A
:100F60001F910895809372000895809171008F5FA2
:100F7000833009F480E0089580917100815008F475
:100F800082E00895809172009FEF9093720008951F
:100F9000E0917100EF3F79F0FF27E7FDF095EE0F4C
:100FA000FF1FEE0FFF1FEE0FFF1FEF59FF4F0680D1
:100FB000F781E02D099508950E940801089508958C
:100FC0000F931F93CF93DF93813009F445C0813095
:100FD00020F0823009F048C044C00E946D07EC0147
:100FE00081E190E00E942C0A082F192F8DB79EB73F
:100FF0000A970FB6F8949EBF0FBE8DBFEDB7FEB730
:101000003196ADB7BEB711960C93118380E190E095
:101010009383828383E790E095838483CE0162E4A7
:1010200070E00E94180A77836683918780870E9408
:101030006F0B8DB79EB70A960FB6F8949EBF0FBE82
:101040008DBF8FE890E0602F712F0E942F02802FBC
:10105000912F0E94C60A08C00E94B5070E94B207DD
:1010600003C081E00E94B207DF91CF911F910F91E1
:1010700008950E94080108950895DF92EF92FF926B
:101080000F931F93CF93DF93D82E84E590E00E94B7
:1010900089098C0183E690E00E9489097C0181E73F
:1010A00090E00E948909EC018D2D813051F0813052
:1010B00018F0823079F40AC0C801B7010E942F02EB
:1010C00009C00E94B5070E94B20704C00E94BC0775
:1010D0000E94B2070115110519F0C8010E94C60A45
:1010E000E114F10419F0C7010E94C60A209719F013
:1010F000CE010E94C60ADF91CF911F910F91FF9000
:10110000EF90DF9008951F930E94690786E10E9487
:101110007E070E944E020E9417010E94080184E689
:101120000E945C0086E990E065EA70E00E942F0270
:1011300080E00E948107789410E0123339F480E057
:1011400060E070E00E94C80710E001C01F5F0E94CD
:10115000D102882319F0813061F406C081E060E09B
:1011600070E00E94C80705C082E060E070E00E9465
:10117000C8070E94C2078F3F41F00E94810780E0AC
:1011800060E070E00E94C80710E08FE39CE90197DF
:10119000F1F700C00000D1CF8DE083BF8FEF8CBF8F
:1011A00089B7826089BF089589B78D7F89BF13BED3
:1011B00008951F920F920FB60F921124EF92FF9293
:1011C0000F931F932F933F934F935F936F937F934F
:1011D0008F939F93AF93BF93EF93FF938091B8004A
:1011E0008F5F8093B8008D33B1F5E090B900F09037
:1011F000BA000091BB001091BC00C801B7012CE3FC
:1012000030E040E050E00E94F9096093C100709323
:10121000C2008093C3009093C4008091BD00909160
:10122000BE00A091BF00B091C000E80EF91E0A1FD9
:101230001B1FE092BD00F092BE000093BF00109310
:10124000C0001092B9001092BA001092BB00109228
:10125000BC001092B800FF91EF91BF91AF919F91A8
:101260008F917F916F915F914F913F912F911F913E
:101270000F91FF90EF900F900FBE0F901F90189559
:101280001F920F920FB60F9211242F933F934F93FB
:101290005F936F937F938F939F93AF93BF93EF93DE
:1012A000FF930E945602FF91EF91BF91AF919F91E2
:1012B0008F917F916F915F914F913F912F910F90FF
:1012C0000FBE0F901F9018951F920F920FB60F929E
:1012D00011248F939F93AF93BF938091B900909106
:1012E000BA00A091BB00B091BC000196A11DB11D38
:1012F0008093B9009093BA00A093BB00B093BC0058
:10130000BF91AF919F918F910F900FBE0F901F9043
:1013100018950F931F93CF93DF93EC010E94660BF8
:10132000009749F001960E942C0A082F192FBE0140
:101330000E945F0B02C000E010E0802F912FDF9130
:10134000CF911F910F91089533D088F09F5790F05F
:10135000B92F9927B751A0F0D1F0660F771F881FDA
:10136000991F1AF0BA95C9F712C0B13081F03AD07E
:10137000B1E0089537C0672F782F8827B85F39F01C
:10138000B93FCCF3869577956795B395D9F73EF439
:1013900090958095709561957F4F8F4F9F4F0895E1
:1013A00057FD9058440F551F59F05F3F71F0479516
:1013B000880F97FB991F61F09F3F79F087950895FB
:1013C000121613061406551FF2CF4695F1DF08C01A
:1013D000161617061806991FF1CF86957105610537
:1013E00008940895E894BB2766277727CB0197F9DF
:1013F0000895629FD001739FF001829FE00DF11D5F
:10140000649FE00DF11D929FF00D839FF00D749F7E
:10141000F00D659FF00D9927729FB00DE11DF91F2A
:10142000639FB00DE11DF91FBD01CF011124089587
:10143000AA1BBB1B51E107C0AA1FBB1FA617B707FA
:1014400010F0A61BB70B881F991F5A95A9F7809516
:101450009095BC01CD010895CF93DF938230910523
:1014600010F482E090E0E091C700F091C80040E005
:1014700050E020E030E026C0608171816817790774
:10148000E0F06817790781F4828193812115310595
:1014900031F0D90113969C938E9312972BC09093A1
:1014A000C8008093C70026C04115510519F0641784
:1014B000750718F4AB01E901DF019F0172816381B7
:1014C000E72FF62F3097C1F64115510501F1481B62
:1014D000590B4430510580F412968D919C911397CD
:1014E000209719F09B838A8304C09093C80080934F
:1014F000C700FD01329646C0FD01E40FF51F819340
:1015000091934250504011965C934E933BC0209172
:10151000C5003091C6002115310541F42091B0007D
:101520003091B1003093C6002093C5002091B200E5
:101530003091B3002115310541F42DB73EB74091EC
:10154000AE005091AF00241B350BE091C500F09127
:10155000C600E217F307A0F42E1B3F0B281739072C
:1015600078F0AC014E5F5F4F2417350748F04E0FFF
:101570005F1F5093C6004093C5008193919302C0B2
:10158000E0E0F0E0CF01DF91CF910895CF93DF93BA
:10159000009709F491C0FC01329713821282609186
:1015A000C7007091C8006115710581F420813181F7
:1015B000280F391F8091C5009091C60082179307AC
:1015C00099F5F093C600E093C50076C0DB0180E09A
:1015D00090E002C0CD01D901AE17BF0748F41296C2
:1015E0002D913C91139721153105A1F7CD0121C013
:1015F000B383A283EF01499159919E01240F351FB6
:10160000A217B30779F42D913C911197240F351F40
:101610002E5F3F4F3183208312962D913C9113977B
:1016200033832283009729F4F093C800E093C70026
:1016300043C0DC011396FC93EE9312974D915D919C
:10164000A40FB51FEA17FB0769F420813181240F2D
:10165000351F2E5F3F4FEC01398328832281338170
:101660003B832A83E0E0F0E002C0FB01BC01DB0128
:1016700012968D919C9113970097B9F79B012E5F5D
:101680003F4F8D919C911197820F931F4091C50000
:101690005091C6004817590779F4309729F41092F1
:1016A000C8001092C70002C013821282225030403C
:1016B0003093C6002093C500DF91CF910895FB01C0
:1016C000DC0105900D920020E1F70895FC010590E2
:1016D0000020E9F7809590958E0F9F1F0895AEE04A
:1016E000B0E0E5E7FBE00C94350E0D891E898F898B
:1016F000988D26E02C831A83098397FF02C080E02F
:1017000090E801979E838D839E01255E3F4FCE0119
:101710000196698D7A8DA9010E94A00B4D815E8191
:1017200057FD0AC02F813885421753070CF49A01E0
:10173000020F131FF80110822E96E4E00C94510E54
:10174000ACE0B0E0E6EAFBE00C94270E6C011B0174
:101750008A01FC0117821682838181FFD1C12E018B
:101760000894411C511CF6019381F10193FD859170
:1017700093FF81911F01882309F4BEC1853239F49A
:1017800093FD859193FF81911F01853229F490E0AB
:10179000B6010E949D0DE7CFEE24FF2420E0203209
:1017A000B0F48B3269F08C3228F4803251F08332FD
:1017B00071F40BC08D3239F0803349F421602CC0B4
:1017C0002260246029C0286027C0206125C027FD31
:1017D0002CC0382F30533A3098F426FF08C08E2D95
:1017E000880FE82EEE0CEE0CE80EE30E15C08F2DE0
:1017F000880FF82EFF0CFF0CF80EF30E20620CC0C1
:101800008E3221F426FD78C1206406C08C3611F496
:10181000206802C0883649F4F10193FD859193FF59
:1018200081911F01882309F0BACF982F95549330E6
:1018300018F09052933028F40C5F1F4FFFE3F983A8
:101840000DC0833631F0833771F0833509F060C005
:1018500022C0F801808189830E5F1F4F420171E031
:10186000A72EB12C16C062E0662E712C600E711E80
:10187000F8018080918026FF03C06E2D70E002C0C9
:101880006FEF7FEFC4012C870E94920D5C018301F2
:101890002C852F7717C052E0652E712C600E711EBB
:1018A000F8018080918026FF03C06E2D70E002C099
:1018B0006FEF7FEFC4012C870E94870D5C012C85A0
:1018C0002068830123FD20C008C080E290E0B601BB
:1018D0002C870E949D0DFA942C858F2D90E0A816E0
:1018E000B90698F311C0F40127FD859127FF819176
:1018F0004F0190E0B6012C870E949D0D2C85F110C0
:10190000FA940894A108B108A114B10461F7F1C0D8
:10191000843611F0893649F527FF08C0F801608147
:101920007181828193810C5F1F4F09C0F801608132
:101930007181882777FD8095982F0E5F1F4F4FE6A6
:10194000B42EB22297FF09C090958095709561954D
:101950007F4F8F4F9F4FF0E8BF2AA2012AE030E06F
:101960000E94C90D782E741845C0853731F43FEEBA
:10197000B32EB2222AE030E025C099EFB92EB22270
:101980008F36C1F0803720F4883509F0B5C00DC01E
:10199000803721F0883709F0AFC002C020E1B22AB9
:1019A000B4FE0BC084E0B82A08C0B4FE09C0E6E06B
:1019B000BE2A06C028E030E005C020E130E002C0C9
:1019C00020E132E0B7FE08C0F801608171818281B8
:1019D00093810C5F1F4F07C0F8016081718180E027
:1019E00090E00E5F1F4FA2010E94C90D782E74185F
:1019F000FFE7BF22B6FE0BC02EEFB2227E1438F4F2
:101A0000B4FE07C0B2FC05C08FEEB82202C0A72CFE
:101A100001C0AE2C8B2D90E0B4FE0DC0FE01E70D91
:101A2000F11D2081203319F4E9EEBE2209C0A394F0
:101A3000B2FE06C004C086789070009709F0A394A7
:101A40008B2C9924B3FC14C0B0FE0FC0AF1428F443
:101A5000E72CEF0CEA18AF2C08C0E72C06C080E298
:101A600090E0B6010E949D0DA394AF14C0F304C092
:101A7000AF1410F4FA1801C0FF2484FE0FC080E3F5
:101A800090E0B6010E949D0D82FE1FC081FE03C042
:101A900088E590E010C088E790E00DC0C40186782A
:101AA0009070009791F081FC02C080E201C08BE24F
:101AB000B7FC8DE290E0B6010E949D0D06C080E368
:101AC00090E0B6010E949D0DEA947E14C0F37A94D2
:101AD000F201E70DF11D808190E0B6010E949D0D9D
:101AE0007720A9F706C080E290E0B6010E949D0D24
:101AF000FA94FF20C1F737CEF6012681378102C064
:101B00002FEF3FEFC9012C96E2E10C94430EFC014C
:101B10000590615070400110D8F7809590958E0F18
:101B20009F1F0895FC016150704001900110D8F78B
:101B3000809590958E0F9F1F08950F931F93CF93BD
:101B4000DF938C01EB018B8181FF1BC082FF0DC0F5
:101B50002E813F818C819D812817390764F4E881AB
:101B6000F9810193F983E88306C0E885F985802F20
:101B70000995009731F48E819F8101969F838E8312
:101B800002C00FEF1FEFC801DF91CF911F910F919E
:101B90000895FA01AA27283051F1203181F1E89403
:101BA0006F936E7F6E5F7F4F8F4F9F4FAF4FB1E050
:101BB0003ED0B4E03CD0670F781F891F9A1FA11D4B
:101BC000680F791F8A1F911DA11D6A0F711D811D4C
:101BD000911DA11D20D009F468943F912AE0269F11
:101BE00011243019305D3193DEF6CF010895462F70
:101BF0004770405D4193B3E00FD0C9F7F6CF462F51
:101C00004F70405D4A3318F0495D31FD40524193B9
:101C100002D0A9F7EACFB4E0A69597958795779576
:101C20006795BA95C9F700976105710508959B01FD
:101C3000AC010A2E06945795479537952795BA9586
:101C4000C9F7620F731F841F951FA01D08952F925F
:101C50003F924F925F926F927F928F929F92AF923C
:101C6000BF92CF92DF92EF92FF920F931F93CF9389
:101C7000DF93CDB7DEB7CA1BDB0B0FB6F894DEBF20
:101C80000FBECDBF09942A88398848885F846E8446
:101C90007D848C849B84AA84B984C884DF80EE8090
:101CA000FD800C811B81AA81B981CE0FD11D0FB699
:101CB000F894DEBF0FBECDBFED010895F894FFCFBD
:101CC000FF0000DC07DF07E007010039083C083DA2
:101CD00008FFFF252E32752E252E32755620202026
:101CE00020202020202020202020202020200052E2
:101CF0004564524157005354415254494E47205570
:101D0000502E2E2E00496E69743A204F4B00200051
:041D1000C900000006
:00000001FF
