:100000000C942A000C940E090C9447000C944700A1
:100010000C94EA080C9447000C9447000C94470099
:100020000C9447000C9447000C9483080C944700F0
:100030000C9447000C9447000C9447000C94470024
:100040000C9447000C9447000C9447000C94470014
:100050000C94470011241FBECFE5D8E0DEBFCDBF12
:1000600010E0A0E6B0E0E4E1FCE102C005900D92F2
:10007000AA3CB107D9F710E0AAECB0E001C01D928C
:10008000AF3DB107E1F70E942D080C94080E0C94C7
:1000900000008D9A882311F495980895843608F00D
:1000A000959A08951F93182FCB01BA01AF98212F6D
:1000B00022952F7030E0A5B3F901E270F070EE0FD9
:1000C000FF1FA90141705070440F551F440F551F69
:1000D000440F551FE42BF52BA90144705070559522
:1000E0004795E42BF52BA9015695479556954795CD
:1000F000569547959F01242B352B220F331F220F36
:10010000331FA37C2A2B25BBAE9A0E944E09611592
:10011000710539F0CB0125E02A95F1F70000019730
:10012000D1F7AE9885E08A95F1F7000025E02A9591
:10013000F1F7000085E08A95F1F7000025E02A95A7
:10014000F1F7000085E08A95F1F700001F70812F1C
:1001500090E0E5B3AC0142705070440F551F9C0114
:1001600021703070220F331F220F331F220F331FD5
:10017000422B532B9C012470307035952795422BD0
:10018000532B9C01369527953695279536952795BF
:10019000CA01822B932B880F991F880F991F2E2F2E
:1001A000237C822B85BBAE9A6115710539F025E061
:1001B0002A95F1F7000061507040C9F7AE9885E0CC
:1001C0008A95F1F7000025E02A95F1F7000085E017
:1001D0008A95F1F7000025E02A95F1F7000085E007
:1001E0008A95F1F700001F91089581E040E050E802
:1001F00060EC74E40E94520082E040E050E860EC61
:1002000074E40E945200089584B3806C84BBAF985C
:10021000AE9884B38C6384BB82E390E0EFE9FFE0A7
:100220003197F1F700C000000197C1F780E240E08C
:1002300050E060E272E40E94520085B3837C8063E8
:1002400085BBAE9A87E290E0F5E0FA95F1F7000001
:1002500001972FEF8F3F9207B9F7AE9888E240E001
:1002600050E060E272E40E9452008CE040E050E016
:1002700068E172E40E94520081E040E050E860ECE6
:1002800074E40E94520086E040E050E060E272E4D4
:100290000E94520082E040E050E860EC74E40E946A
:1002A00052000895AF9A282F22952F7030E095B311
:1002B000B90162707070660F771FA90141705070AC
:1002C000440F551F440F551F440F551F642B752BAA
:1002D000A9014470507055954795642B752BA90161
:1002E0005695479556954795569547959B01242BCE
:1002F000352B220F331F220F331F937C292B25BB55
:10030000AE9A28E230E095E09A95F1F7000021508E
:100310003040C9F7AE988F7090E065B3AC01427081
:100320005070440F551F9C0121703070220F331FF5
:10033000220F331F220F331F422B532B9C0124709B
:10034000307035952795422B532B9C013695279578
:100350003695279536952795CA01822B932B880FC2
:10036000991F880F991F262F237C822B85BBAE9A5D
:1003700087E290E025E02A95F1F7000001972FEF42
:100380008F3F9207B9F7AE9808958E3CA1F08F3C4D
:1003900038F4823CC1F0893C61F08C37A9F407C085
:1003A000823D69F08B3D69F08F3C71F406C08FEFA0
:1003B000089586EA08958FE4089588EA089584E50B
:1003C00008958EEA089582E40895CF93DF93EC01B7
:1003D0008881882341F021960E94C5010E94520124
:1003E00089918823C9F7DF91CF9108950F931F93C7
:1003F000CF93DF93EC018B0180E840E050E060E2B6
:1004000072E40E945200CE010E94E50180EC40E0BF
:1004100050E060E272E40E945200C8010E94E501CF
:10042000DF91CF911F910F9108958CE085BD8FEFE3
:1004300083BD89B7806889BF089590B39A70809111
:10044000CA008230A1F1833018F48823E1F057C04C
:10045000883021F08A3009F052C03DC09A3041F412
:100460008091CB008F5F8093CB001092CC0047C06F
:10047000992309F044C08091CC008F5F8093CC0019
:100480001092CB0047C0983041F48091CB008F5F31
:100490008093CB001092CC0032C0923081F58091D5
:1004A000CC008F5F8093CC001092CB0033C0992397
:1004B00041F48091CB008F5F8093CB001092CC00F1
:1004C0001EC09A30E1F48091CC008F5F8093CC0005
:1004D0001092CB001FC0923041F48091CB008F5F0F
:1004E0008093CB001092CC000AC0983041F48091E8
:1004F000CC008F5F8093CC001092CB000BC080911A
:10050000CB00843039F4109260001092CB0010922E
:10051000CC000BC08091CC00843039F481E0809312
:1005200060001092CB001092CC009093CA00089506
:10053000809160009FEF9093600008951F93CF9388
:10054000DF93182FEB0183E090E00E94D609E82F9B
:10055000F92F9F012115310551F01083D283C183FA
:10056000143028F0C9010E94700A20E030E0822F88
:10057000932FDF91CF911F910895FC0180818130ED
:1005800009F448C0813038F0823009F482C08330E9
:1005900009F0FDC0BDC04AB381E090E09C0101803C
:1005A00002C0220F331F0A94E2F7242B2ABB4BB35D
:1005B0009C01018002C0220F331F0A94E2F72095AC
:1005C00024232BBBAFE7B7E01197F1F700C0000081
:1005D0002AB3018002C0880F991F0A94E2F7809520
:1005E00082238ABB87E191E00197F1F700C0000008
:1005F00029B330E0018002C0359527950A94E2F7CF
:1006000081E020FD80E0A7E6B6E01197F1F700C099
:100610000000089547B381E090E09C01018002C092
:10062000220F331F0A94E2F7242B27BB48B39C0107
:10063000018002C0220F331F0A94E2F72095242381
:1006400028BBAFE7B7E01197F1F700C0000027B370
:10065000018002C0880F991F0A94E2F780958223D7
:1006600087BB87E191E00197F1F700C0000026B356
:1006700030E0018002C0359527950A94E2F781E0C9
:1006800020FD80E0A7E6B6E01197F1F700C000007A
:10069000089544B381E090E09C01018002C0220FE4
:1006A000331F0A94E2F7242B24BB45B39C0101803D
:1006B00002C0220F331F0A94E2F72095242325BBA2
:1006C000AFE7B7E01197F1F700C0000024B3018055
:1006D00002C0880F991F0A94E2F78095822384BB99
:1006E00087E191E00197F1F700C0000023B330E00B
:1006F000018002C0359527950A94E2F781E020FD3C
:1007000080E0A7E6B6E01197F1F700C00000089579
:1007100041B381E090E09C01018002C0220F331FB1
:100720000A94E2F7242B21BB42B39C01018002C052
:10073000220F331F0A94E2F72095242322BBAFE750
:10074000B7E01197F1F700C0000021B3018002C0AB
:10075000880F991F0A94E2F78095822381BB87E175
:1007600091E00197F1F700C0000020B330E0018074
:1007700002C0359527950A94E2F781E020FD80E0DC
:10078000A7E6B6E01197F1F700C00000089580E0F9
:100790000895FC0148E081E090E060FFB4C0208152
:1007A000213099F1213038F0223009F458C023303B
:1007B00009F060C17EC05AB39C01018002C0220FC3
:1007C000331F0A94E2F7252B2ABB5BB39C010180FF
:1007D00002C0220F331F0A94E2F7209525232BBB7A
:1007E00020E22A95F1F75AB39C01018002C0220F42
:1007F000331F0A94E2F7209525232ABBAFEFB0E020
:100800001197F1F700C0000035C157B39C0101807A
:1008100002C0220F331F0A94E2F7252B27BB58B3DF
:100820009C01018002C0220F331F0A94E2F7209539
:10083000252328BBB0E2BA95F1F757B39C0101809C
:1008400002C0220F331F0A94E2F72095252327BB0D
:10085000AFEFB0E01197F1F700C000000BC154B347
:100860009C01018002C0220F331F0A94E2F7252B5E
:1008700024BB55B39C01018002C0220F331F0A9490
:10088000E2F72095252325BBB0E2BA95F1F754B3E2
:100890009C01018002C0220F331F0A94E2F72095C9
:1008A000252324BBAFEFB0E01197F1F700C00000A3
:1008B000E1C051B39C01018002C0220F331F0A9492
:1008C000E2F7252B21BB52B39C01018002C0220F0D
:1008D000331F0A94E2F72095252322BBB0E2BA9594
:1008E000F1F751B39C01018002C0220F331F0A941B
:1008F000E2F72095252321BBAFEFB0E01197F1F788
:1009000000C00000B7C020812130A1F1213038F0B3
:10091000223009F45AC0233009F0ACC081C05AB368
:100920009C01018002C0220F331F0A94E2F7252B9D
:100930002ABB5BB39C01018002C0220F331F0A94C3
:10094000E2F7209525232BBBAFEEB0E01197F1F72E
:1009500000C000005AB39C01018002C0220F331F67
:100960000A94E2F7209525232ABBB5E3BA95F1F75F
:10097000000080C057B39C01018002C0220F331FCA
:100980000A94E2F7252B27BB58B39C01018002C0D3
:10099000220F331F0A94E2F72095252328BBAFEEE0
:1009A000B0E01197F1F700C0000057B39C0101803F
:1009B00002C0220F331F0A94E2F72095252327BB9C
:1009C000B5E3BA95F1F7000055C054B39C0101801E
:1009D00002C0220F331F0A94E2F7252B24BB55B324
:1009E0009C01018002C0220F331F0A94E2F7209578
:1009F000252325BBAFEEB0E01197F1F700C0000052
:100A000054B39C01018002C0220F331F0A94E2F705
:100A10002095252324BBB5E3BA95F1F700002AC041
:100A200051B39C01018002C0220F331F0A94E2F7E8
:100A3000252B21BB52B39C01018002C0220F331F22
:100A40000A94E2F72095252322BBAFEEB0E0119780
:100A5000F1F700C0000051B39C01018002C0220FD9
:100A6000331F0A94E2F72095252321BBB5E3BA95FD
:100A7000F1F70000415011F066958FCE08950F9365
:100A80001F93CF93DF93EC018A010E94C9038881F1
:100A9000813021F1813080F1823091F0833009F092
:100AA00073C080B390E0098002C0959587950A9441
:100AB000E2F780FD69C00115110509F057C064C057
:100AC00083B390E0098002C0959587950A94E2F778
:100AD00080FD5AC001151105D1F556C086B390E0CE
:100AE000098002C0959587950A94E2F780FD4CC075
:100AF00001151105E9F448C089B390E0098002C0EE
:100B0000959587950A94E2F780FD3EC00115110581
:100B1000D9F185E08A95F1F7000089B390E009806A
:100B200002C0959587950A94E2F780FFF2CF2CC01A
:100B300085E08A95F1F7000086B390E0098002C055
:100B4000959587950A94E2F780FFF2CF1DC085E066
:100B50008A95F1F7000083B390E0098002C0959573
:100B600087950A94E2F780FFF2CF0EC085E08A9560
:100B7000F1F7000080B390E0098002C09595879559
:100B80000A94E2F780FFF2CFDF91CF911F910F918E
:100B90000895FC0180E090E020E030E041E050E08A
:100BA0006081613009F455C0613038F0623009F479
:100BB0009CC0633009F030C1E4C0AAB3BA0101801F
:100BC00002C0660F771F0A94E2F76A2B6ABBABB3C9
:100BD000BA01018002C0660F771F0A94E2F76095A0
:100BE0006A236BBB60E26A95F1F7AAB3BA01018090
:100BF00002C0660F771F0A94E2F760956A236ABB0A
:100C0000A0E3AA95F1F769B370E0018002C0759581
:100C100067950A94E2F760FD0CC0BA01082E02C085
:100C2000660F771F0A94E2F76095709526233723A5
:100C300009C0BA01082E02C0660F771F0A94E2F7B6
:100C4000262B372BABEDB0E01197F1F700C0000079
:100C5000E3C0A7B3BA01018002C0660F771F0A94F0
:100C6000E2F76A2B67BBA8B3BA01018002C0660F26
:100C7000771F0A94E2F760956A2368BBB0E2BA95E1
:100C8000F1F7A7B3BA01018002C0660F771F0A947B
:100C9000E2F760956A2367BB60E36A95F1F766B394
:100CA00070E0018002C0759567950A94E2F760FDD7
:100CB0000CC0BA01082E02C0660F771F0A94E2F733
:100CC000609570952623372309C0BA01082E02C00B
:100CD000660F771F0A94E2F7262B372BABEDB0E0B7
:100CE0001197F1F700C0000097C0A4B3BA010180CA
:100CF00002C0660F771F0A94E2F76A2B64BBA5B3A4
:100D0000BA01018002C0660F771F0A94E2F760956E
:100D10006A2365BBB0E2BA95F1F7A4B3BA010180CA
:100D200002C0660F771F0A94E2F760956A2364BBDE
:100D300060E36A95F1F763B370E0018002C07595D6
:100D400067950A94E2F760FD0CC0BA01082E02C054
:100D5000660F771F0A94E2F7609570952623372374
:100D600009C0BA01082E02C0660F771F0A94E2F785
:100D7000262B372BABEDB0E01197F1F700C0000048
:100D80004BC0A1B3BA01018002C0660F771F0A945D
:100D9000E2F76A2B61BBA2B3BA01018002C0660F01
:100DA000771F0A94E2F760956A2362BBB0E2BA95B6
:100DB000F1F7A1B3BA01018002C0660F771F0A9450
:100DC000E2F760956A2361BB60E36A95F1F760B36F
:100DD00070E0018002C0759567950A94E2F760FDA6
:100DE0000CC0BA01082E02C0660F771F0A94E2F702
:100DF000609570952623372309C0BA01082E02C0DA
:100E0000660F771F0A94E2F7262B372BABEDB0E085
:100E10001197F1F700C0000001968031910509F0AB
:100E2000BFCE822F932F0895FC010097C1F081E07F
:100E30008083CB019770929582958F7089279F70E0
:100E4000892781836F70707021E732E0629FC00153
:100E5000639F900D729F900D112493838283089558
:100E6000379A81EC87B90895369A349BFECF24B126
:100E700030E045B1942F80E0282B392B8091CD00B4
:100E8000280F311D822F932F08958093CD00089550
:100E90001F93182F833058F5E09171008E1739F1A8
:100EA000EF3F89F0FF27E7FDF095EE0FFF1FEE0FF4
:100EB000FF1FEE0FFF1FEF59FF4F0480F581E02D5C
:100EC00080E090E0099510937100E12FFF27E7FD86
:100ED000F095EE0FFF1FEE0FFF1FEE0FFF1FEF59F4
:100EE000FF4F0280F381E02D80E090E009951F9193
:100EF0000895809372000895809171008F5F833010
:100F000009F480E0089580917100815008F482E036
:100F10000895809172009FEF909372000895E09180
:100F20007100EF3F79F0FF27E7FDF095EE0FFF1F0F
:100F3000EE0FFF1FEE0FFF1FEF59FF4F0680F781E7
:100F4000E02D099508950E94F500089508950F93E6
:100F50001F93CF93DF93813009F445C0813020F097
:100F6000823009F048C044C00E943407EC0181E19E
:100F700090E00E94D609082F192F8DB79EB70A97C7
:100F80000FB6F8949EBF0FBE8DBFEDB7FEB731967A
:100F9000ADB7BEB711960C93118380E190E09383B7
:100FA000828383E790E095838483CE0162E470E0DE
:100FB0000E94C20977836683918780870E94190BFC
:100FC0008DB79EB70A960FB6F8949EBF0FBE8DBF21
:100FD0008FE890E0602F712F0E94F601802F912FF3
:100FE0000E94700A08C00E947C070E94790703C013
:100FF00081E00E947907DF91CF911F910F910895B1
:101000000E94F500089508951F93CF93DF93182F42
:101010008091A9009091AA000E943309EC0111303F
:1010200051F0113018F0123079F40AC066E970E01E
:101030000E94F60109C00E947C070E94790704C043
:101040000E9483070E947907209719F0CE010E9421
:10105000700ADF91CF911F9108951F930E9430076E
:1010600086E10E9445070E9415020E9404010E9429
:10107000F50084E60E9449008BEA90E06AEB70E09C
:101080000E94F60180E00E944807789410E0123335
:1010900039F480E060E070E00E948F0710E001C04A
:1010A0001F5F0E949802882319F0813061F406C006
:1010B00081E060E070E00E948F0705C082E060E0A0
:1010C00070E00E948F070E9489078F3F41F00E94C5
:1010D000480780E060E070E00E948F0710E08FE337
:1010E0009CE90197F1F700C00000D1CF8DE083BFEC
:1010F0008FEF8CBF89B7826089BF089589B78D7FD4
:1011000089BF13BE08951F920F920FB60F9211243C
:10111000EF92FF920F931F932F933F934F935F9301
:101120006F937F938F939F93AF93BF93EF93FF93AF
:101130008091CE008F5F8093CE008D33B1F5E0902B
:10114000CF00F090D0000091D1001091D200C801E2
:10115000B7012CE330E040E050E00E94A309609327
:10116000D7007093D8008093D9009093DA008091D3
:10117000D3009091D400A091D500B091D600E80E94
:10118000F91E0A1F1B1FE092D300F092D4000093B7
:10119000D5001093D6001092CF001092D00010927C
:1011A000D1001092D2001092CE00FF91EF91BF912A
:1011B000AF919F918F917F916F915F914F913F91EF
:1011C0002F911F910F91FF90EF900F900FBE0F90F6
:1011D0001F9018951F920F920FB60F9211242F9304
:1011E0003F934F935F936F937F938F939F93AF93AF
:1011F000BF93EF93FF930E941D02FF91EF91BF9168
:10120000AF919F918F917F916F915F914F913F919E
:101210002F910F900FBE0F901F9018951F920F9255
:101220000FB60F9211248F939F93AF93BF9380912A
:10123000CF009091D000A091D100B091D200019642
:10124000A11DB11D8093CF009093D000A093D10039
:10125000B093D200BF91AF919F918F910F900FBE2D
:101260000F901F9018950F931F93CF93DF93EC016E
:101270000E94100B009749F001960E94D609082F92
:10128000192FBE010E94090B02C000E010E0802F60
:10129000912FDF91CF911F910F91089533D088F056
:1012A0009F5790F0B92F9927B751A0F0D1F0660F52
:1012B000771F881F991F1AF0BA95C9F712C0B1306D
:1012C00081F03AD0B1E0089537C0672F782F882792
:1012D000B85F39F0B93FCCF3869577956795B395AC
:1012E000D9F73EF490958095709561957F4F8F4F1B
:1012F0009F4F089557FD9058440F551F59F05F3F79
:1013000071F04795880F97FB991F61F09F3F79F027
:1013100087950895121613061406551FF2CF4695A9
:10132000F1DF08C0161617061806991FF1CF86952B
:101330007105610508940895E894BB27662777270F
:10134000CB0197F90895629FD001739FF001829FAE
:10135000E00DF11D649FE00DF11D929FF00D839F44
:10136000F00D749FF00D659FF00D9927729FB00DE1
:10137000E11DF91F639FB00DE11DF91FBD01CF01F4
:1013800011240895AA1BBB1B51E107C0AA1FBB1F54
:10139000A617B70710F0A61BB70B881F991F5A9501
:1013A000A9F780959095BC01CD010895CF93DF9367
:1013B0008230910510F482E090E0E091DD00F09140
:1013C000DE0040E050E020E030E026C06081718126
:1013D00068177907E0F06817790781F482819381B3
:1013E0002115310531F0D90113969C938E931297F4
:1013F0002BC09093DE008093DD0026C0411551057F
:1014000019F06417750718F4AB01E901DF019F01BA
:1014100072816381E72FF62F3097C1F64115510590
:1014200001F1481B590B4430510580F412968D91FF
:101430009C911397209719F09B838A8304C0909303
:10144000DE008093DD00FD01329646C0FD01E40F11
:10145000F51F819391934250504011965C934E93A7
:101460003BC02091DB003091DC002115310541F4B7
:101470002091C5003091C6003093DC002093DB0042
:101480002091C7003091C8002115310541F42DB7D6
:101490003EB74091C3005091C400241B350BE0912E
:1014A000DB00F091DC00E217F307A0F42E1B3F0BEA
:1014B0002817390778F0AC014E5F5F4F24173507C6
:1014C00048F04E0F5F1F5093DC004093DB00819388
:1014D000919302C0E0E0F0E0CF01DF91CF91089559
:1014E000CF93DF93009709F491C0FC0132971382E8
:1014F00012826091DD007091DE006115710581F44A
:1015000020813181280F391F8091DB009091DC0010
:101510008217930799F5F093DC00E093DB0076C027
:10152000DB0180E090E002C0CD01D901AE17BF071A
:1015300048F412962D913C91139721153105A1F78E
:10154000CD0121C0B383A283EF01499159919E013E
:10155000240F351FA217B30779F42D913C911197F1
:10156000240F351F2E5F3F4F3183208312962D911C
:101570003C91139733832283009729F4F093DE0084
:10158000E093DD0043C0DC011396FC93EE931297C9
:101590004D915D91A40FB51FEA17FB0769F42081F7
:1015A0003181240F351F2E5F3F4FEC013983288393
:1015B000228133813B832A83E0E0F0E002C0FB011B
:1015C000BC01DB0112968D919C9113970097B9F79E
:1015D0009B012E5F3F4F8D919C911197820F931F1E
:1015E0004091DB005091DC004817590779F430979F
:1015F00029F41092DE001092DD0002C013821282E4
:10160000225030403093DC002093DB00DF91CF91FB
:101610000895FB01DC0105900D920020E1F708958B
:10162000FC0105900020E9F7809590958E0F9F1F93
:101630000895AEE0B0E0EFE1FBE00C94DF0D0D8922
:101640001E898F89988D26E02C831A83098397FF42
:1016500002C080E090E801979E838D839E01255E05
:101660003F4FCE010196698D7A8DA9010E944A0BE8
:101670004D815E8157FD0AC02F813885421753077F
:101680000CF49A01020F131FF80110822E96E4E069
:101690000C94FB0DACE0B0E0E0E5FBE00C94D10D68
:1016A0006C011B018A01FC0117821682838181FF74
:1016B000D1C12E010894411C511CF6019381F10106
:1016C00093FD859193FF81911F01882309F4BEC189
:1016D000853239F493FD859193FF81911F01853205
:1016E00029F490E0B6010E94470DE7CFEE24FF24D5
:1016F00020E02032B0F48B3269F08C3228F4803252
:1017000051F0833271F40BC08D3239F0803349F4DB
:1017100021602CC02260246029C0286027C020617D
:1017200025C027FD2CC0382F30533A3098F426FFBF
:1017300008C08E2D880FE82EEE0CEE0CE80EE30E9E
:1017400015C08F2D880FF82EFF0CFF0CF80EF30E2E
:1017500020620CC08E3221F426FD78C1206406C0C0
:101760008C3611F4206802C0883649F4F10193FDEB
:10177000859193FF81911F01882309F0BACF982F9B
:101780009554933018F09052933028F40C5F1F4F0B
:10179000FFE3F9830DC0833631F0833771F0833571
:1017A00009F060C022C0F801808189830E5F1F4F5D
:1017B000420171E0A72EB12C16C062E0662E712C9A
:1017C000600E711EF8018080918026FF03C06E2D8F
:1017D00070E002C06FEF7FEFC4012C870E943C0DC8
:1017E0005C0183012C852F7717C052E0652E712C88
:1017F000600E711EF8018080918026FF03C06E2D5F
:1018000070E002C06FEF7FEFC4012C870E94310DA2
:101810005C012C852068830123FD20C008C080E284
:1018200090E0B6012C870E94470DFA942C858F2DED
:1018300090E0A816B90698F311C0F40127FD859130
:1018400027FF81914F0190E0B6012C870E94470D40
:101850002C85F110FA940894A108B108A114B104E0
:1018600061F7F1C0843611F0893649F527FF08C0C9
:10187000F80160817181828193810C5F1F4F09C0E3
:10188000F80160817181882777FD8095982F0E5F20
:101890001F4F4FE6B42EB22297FF09C09095809556
:1018A000709561957F4F8F4F9F4FF0E8BF2AA2013F
:1018B0002AE030E00E94730D782E741845C08537F9
:1018C00031F43FEEB32EB2222AE030E025C099EF8A
:1018D000B92EB2228F36C1F0803720F4883509F056
:1018E000B5C00DC0803721F0883709F0AFC002C005
:1018F00020E1B22AB4FE0BC084E0B82A08C0B4FECE
:1019000009C0E6E0BE2A06C028E030E005C020E1BC
:1019100030E002C020E132E0B7FE08C0F80160818B
:101920007181828193810C5F1F4F07C0F801608134
:10193000718180E090E00E5F1F4FA2010E94730D45
:10194000782E7418FFE7BF22B6FE0BC02EEFB2222E
:101950007E1438F4B4FE07C0B2FC05C08FEEB82286
:1019600002C0A72C01C0AE2C8B2D90E0B4FE0DC0A0
:10197000FE01E70DF11D2081203319F4E9EEBE22AE
:1019800009C0A394B2FE06C004C086789070009788
:1019900009F0A3948B2C9924B3FC14C0B0FE0FC0A3
:1019A000AF1428F4E72CEF0CEA18AF2C08C0E72C92
:1019B00006C080E290E0B6010E94470DA394AF14E8
:1019C000C0F304C0AF1410F4FA1801C0FF2484FE61
:1019D0000FC080E390E0B6010E94470D82FE1FC059
:1019E00081FE03C088E590E010C088E790E00DC05C
:1019F000C40186789070009791F081FC02C080E26B
:101A000001C08BE2B7FC8DE290E0B6010E94470D69
:101A100006C080E390E0B6010E94470DEA947E1470
:101A2000C0F37A94F201E70DF11D808190E0B601D8
:101A30000E94470D7720A9F706C080E290E0B6012A
:101A40000E94470DFA94FF20C1F737CEF601268198
:101A5000378102C02FEF3FEFC9012C96E2E10C94D1
:101A6000ED0DFC010590615070400110D8F7809594
:101A700090958E0F9F1F0895FC016150704001905A
:101A80000110D8F7809590958E0F9F1F08950F93A2
:101A90001F93CF93DF938C01EB018B8181FF1BC0E0
:101AA00082FF0DC02E813F818C819D8128173907CF
:101AB00064F4E881F9810193F983E88306C0E8853D
:101AC000F985802F0995009731F48E819F810196C9
:101AD0009F838E8302C00FEF1FEFC801DF91CF916C
:101AE0001F910F910895FA01AA27283051F1203152
:101AF00081F1E8946F936E7F6E5F7F4F8F4F9F4FA2
:101B0000AF4FB1E03ED0B4E03CD0670F781F891FE3
:101B10009A1FA11D680F791F8A1F911DA11D6A0FB1
:101B2000711D811D911DA11D20D009F468943F9164
:101B30002AE0269F11243019305D3193DEF6CF0163
:101B40000895462F4770405D4193B3E00FD0C9F729
:101B5000F6CF462F4F70405D4A3318F0495D31FD96
:101B60004052419302D0A9F7EACFB4E0A6959795E9
:101B7000879577956795BA95C9F7009761057105BF
:101B800008959B01AC010A2E069457954795379509
:101B90002795BA95C9F7620F731F841F951FA01D63
:101BA00008952F923F924F925F926F927F928F9201
:101BB0009F92AF92BF92CF92DF92EF92FF920F93DC
:101BC0001F93CF93DF93CDB7DEB7CA1BDB0B0FB6E6
:101BD000F894DEBF0FBECDBF09942A8839884888A3
:101BE0005F846E847D848C849B84AA84B984C88439
:101BF000DF80EE80FD800C811B81AA81B981CE0F30
:101C0000D11D0FB6F894DEBF0FBECDBFED01089514
:041C1000F894FFCF76
:101C1400FF0000A307A607A70701000008030804A4
:101C240008FFFF252E32752E252E327556202020D2
:101C3400202020202020202020202020202000528E
:101C4400456452415700C2DBCACB00D2CECFCEC2CC
:101C5400DBC920CEC3CECDDC009B0053544152548B
:101C6400494E472055502E2E2E00496E69743A2055
:0A1C74004F4B002000DF00000000CD
:00000001FF
