:100000000C94FE000C944B0D0C941B010C941B01E2
:100010000C94250D0C941B010C941B010C941B01DA
:100020000C941B010C941B010C94BC0C0C941B0134
:100030000C941B010C941B010C941B010C941B01D0
:100040000C941B010C941B010C941B010C941B01C0
:100050000C941B01F102FC02FC02FC02FC02FC02FB
:10006000FC02FC02FC02FC02FC02FC02FC02FC02A0
:10007000FC02FC02FC02FC02FC02FC02FC02FC0290
:10008000FC02FC02FC02FC02FC02FC02FC02FC0280
:10009000FC02FC02FC02FC02FC02FC02CB02FC02A1
:1000A000FC02FC02FC02FC02FC02FC02FC02FC0260
:1000B000FC02FC02FC02FC02FC02FC02FC02FC0250
:1000C000FC02FC02FC02FC02FC02FC02FC02FC0240
:1000D000FC02FC02FC02FC02FC02FC02FC02FC0230
:1000E000FC02FC02FC02FC02FC02FC02FC02FC0220
:1000F000FC02FC02FC02FC02FC02FC02FC02FC0210
:10010000FC02FC02FC02FC02FC02FC02FC02FC02FF
:10011000FC02FC02FC02FC02FC02FC02FC02FC02EF
:10012000FC02FC02FB02CD02CF02D102D302D502B7
:10013000FC02FC02D702D902DB02DD02DF02E1028F
:10014000E302E502E702E902EB02ED02FC02FC0237
:10015000FC02F302FC02FC02FC02F502F702FC02C4
:10016000EF02F902202D2D2D20C2DB58CEC4202D08
:100170002D2D00202020CDC0D1D2D0CEC9CAC8009C
:10018000C8CCCFD3CBDCD1CEC22FCEC1CED0CED235
:1001900000CFCEC4D1D2D0CEC9CAC020C2CECBDC13
:1001A000D200202020203CC3CED0DFD23E20202011
:1001B000002020203CC2DBCACBDED7C5CDDB3E0011
:1001C00020C1CED0D2CEC2DBC520CEC3CDC8002048
:1001D0002020203CC3CED0C8D23E202020002020AA
:1001E000203CC2DBCACBDED7C5CD3E0020D2CECF6D
:1001F000CEC2DBC920CEC3CECDDC000011241FBE91
:10020000CFE5D8E0DEBFCDBF11E0A0E6B0E0E4E787
:10021000F4E202C005900D92A432B107D9F711E0C3
:10022000A4E2B1E001C01D92AA35B107E1F70E9436
:100230004B0C0C9438120C9400008C9A8FB582628F
:100240008FBD8EB58B618EBD17BC16BC19BC18BC9A
:10025000089597BD86BD9695879599BD88BD709385
:100260002501609324010895809124019091250136
:10027000009759F0019790932501809324010097EE
:1002800021F417BC16BC19BC18BC08958D9A88239C
:1002900011F495980895843608F0959A0895CF92B0
:1002A000DF92EF92FF92CF93C82F6A017B01AF9844
:1002B00082958F7090E0E5B3BC0162707070660F3C
:1002C000771FAC0141705070440F551F440F551FEC
:1002D000440F551F462B572B9C01247030703595C9
:1002E0002795242B352B96958795969587959695EA
:1002F0008795822B932B880F991F880F991FE37C7A
:100300008E2B85BBAE9AC701B6010E948C0D61157C
:10031000710539F0CB0125E02A95F1F7000001972E
:10032000D1F7AE9885E08A95F1F7000025E02A958F
:10033000F1F7000085E08A95F1F7000025E02A95A5
:10034000F1F7000085E08A95F1F70000CF702C2FBF
:1003500030E0E5B3A90142705070440F551FC90148
:1003600081709070880F991F880F991F880F991FAF
:10037000482B592BC9018470907095958795842BD3
:10038000952B369527953695279536952795282BC5
:10039000392B220F331F220F331FE37C2E2B25BB5B
:1003A000AE9A6115710539F025E02A95F1F7000044
:1003B00061507040C9F7AE9885E08A95F1F700006A
:1003C00025E02A95F1F7000085E08A95F1F7000015
:1003D00025E02A95F1F7000085E08A95F1F7000005
:1003E000CF91FF90EF90DF90CF90089581E040E0B3
:1003F00050E860EC74E40E944F0182E040E050E875
:1004000060EC74E40E944F01089584B3806C84BB57
:10041000AF98AE9884B38C6384BB82E390E0EFE93D
:10042000FFE03197F1F700C000000197C1F780E2CB
:1004300040E050E060E272E40E944F0185B3837CAB
:10044000806385BBAE9A88E290E0F5E0FA95F1F71B
:1004500000000197D1F7AE9888E240E050E060E2FA
:1004600072E40E944F018CE040E050E068E172E4E9
:100470000E944F0181E040E050E860EC74E40E948B
:100480004F0186E040E050E060E272E40E944F01DC
:1004900082E040E050E860EC74E40E944F0108956F
:1004A000AF9A282F22952F7030E095B3B901627072
:1004B0007070660F771FA90141705070440F551F6F
:1004C000440F551F440F551F642B752BA901447011
:1004D000507055954795462B572B36952795369551
:1004E000279536952795242B352B220F331F220F66
:1004F000331F937C292B25BBAE9A28E230E095E090
:100500009A95F1F7000021503040C9F7AE988F70EE
:1005100090E065B3AC0142705070440F551F9C01D0
:1005200021703070220F331F220F331F220F331F11
:10053000242B352BAC014470507055954795242BD6
:10054000352B969587959695879596958795822BC9
:10055000932B880F991F880F991F637C862B85BB6F
:10056000AE9A88E290E025E02A95F1F70000019725
:10057000D1F7AE980895482F50E04855504048387C
:100580005105D0F5465D5F4FFA01EE0FFF1F059054
:10059000F491E02D09948FEF089580EA089582E4A4
:1005A000089581EA089580EE089585E4089585EA26
:1005B000089586EA08958BE4089587EA08958DE406
:1005C000089588E408958FE4089588EA089580E501
:1005D000089583E4089584E5089589EA089580EBF9
:1005E000089588E508958BEA08958EEA089582E6D5
:1005F000089581EB089581E40895CF93DF93EC0192
:100600008881882341F021960E94BB020E945002FB
:1006100089918823C9F7DF91CF9108950F931F9394
:10062000CF93DF93EC018B0180E840E050E060E283
:1006300072E40E944F01CE010E94FD0280EC40E076
:1006400050E060E272E40E944F01C8010E94FD0286
:10065000DF91CF911F910F9108958CE085BD8FEFB1
:1006600083BD89B7806889BF089590B39A708091DF
:1006700026018230A1F1833018F48823E1F057C0BD
:10068000883021F08A3009F052C03DC09A3041F4E0
:10069000809127018F5F809327011092280147C026
:1006A000992309F044C0809128018F5F809328012D
:1006B0001092270148C0983041F4809127018F5F44
:1006C000809327011092280132C0923081F58091E9
:1006D00028018F5F809328011092270134C099234D
:1006E00041F4809127018F5F8093270110922801A8
:1006F0001EC09A30E1F4809128018F5F8093280119
:100700001092270120C0923041F4809127018F5F21
:1007100080932701109228010AC0983041F48091FB
:1007200028018F5F80932801109227010CC08091CF
:100730002701843041F481E0809329011092270140
:10074000109228010BC080912801843039F482E096
:10075000809329011092270110922801909326017D
:1007600080991FC080912A01882309F580912B016F
:1007700090912C01019690932C0180932B0185364A
:100780009105A8F080912901882389F483E0809362
:10079000290110922C0110922B0181E080932A01F3
:1007A000089510922C0110922B0110922A010895A5
:1007B000809129011092290108950F931F93CF93DF
:1007C000C82F8B0183E090E00E94140EE82FF92FD0
:1007D000309751F0C08312830183C43028F0CF01D9
:1007E0000E94AA0EE0E0F0E08E2F9F2FCF911F9184
:1007F0000F910895FC018081813009F448C0813057
:1008000038F0823009F482C0833009F0FDC0BDC0E9
:100810004AB381E090E09C01018002C0220F331FA7
:100820000A94E2F7242B2ABB4BB39C01018002C03F
:10083000220F331F0A94E2F7209524232BBBAFE746
:10084000B7E01197F1F700C000002AB3018002C0A1
:10085000880F991F0A94E2F7809582238ABB87E16B
:1008600091E00197F1F700C0000029B330E001806A
:1008700002C0359527950A94E2F781E020FD80E0DB
:10088000A7E6B6E01197F1F700C00000089547B35E
:1008900081E090E09C01018002C0220F331F0A9486
:1008A000E2F7242B27BB48B39C01018002C0220F32
:1008B000331F0A94E2F72095242328BBAFE7B7E063
:1008C0001197F1F700C0000027B3018002C0880F24
:1008D000991F0A94E2F78095822387BB87E191E014
:1008E0000197F1F700C0000026B330E0018002C09C
:1008F000359527950A94E2F781E020FD80E0A7E690
:10090000B6E01197F1F700C00000089544B381E00C
:1009100090E09C01018002C0220F331F0A94E2F78D
:10092000242B24BB45B39C01018002C0220F331F3E
:100930000A94E2F72095242325BBAFE7B7E011978F
:10094000F1F700C0000024B3018002C0880F991F96
:100950000A94E2F78095822384BB87E191E00197B6
:10096000F1F700C0000023B330E0018002C03595EC
:1009700027950A94E2F781E020FD80E0A7E6B6E043
:100980001197F1F700C00000089541B381E090E0B5
:100990009C01018002C0220F331F0A94E2F7242B2E
:1009A00021BB42B39C01018002C0220F331F0A9475
:1009B000E2F72095242322BBAFE7B7E01197F1F7C8
:1009C00000C0000021B3018002C0880F991F0A9463
:1009D000E2F78095822381BB87E191E00197F1F7EF
:1009E00000C0000020B330E0018002C0359527959B
:1009F0000A94E2F781E020FD80E0A7E6B6E01197D7
:100A0000F1F700C00000089580E00895FC0188E03F
:100A100041E050E060FFB4C09081913099F1913095
:100A200038F0923009F458C0933009F060C17EC0AC
:100A30009AB39A01018002C0220F331F0A94E2F791
:100A4000292B2ABB9BB39A01018002C0220F331FBE
:100A50000A94E2F7209529232BBB90E29A95F1F7AF
:100A60009AB39A01018002C0220F331F0A94E2F761
:100A7000209529232ABBAFEFB0E01197F1F700C012
:100A8000000035C197B39A01018002C0220F331FC5
:100A90000A94E2F7292B27BB98B39A01018002C080
:100AA000220F331F0A94E2F72095292328BBB0E2D6
:100AB000BA95F1F797B39A01018002C0220F331F54
:100AC0000A94E2F72095292327BBAFEFB0E01197F6
:100AD000F1F700C000000BC194B39A01018002C07D
:100AE000220F331F0A94E2F7292B24BB95B39A01F6
:100AF000018002C0220F331F0A94E2F720952923B8
:100B000025BBB0E2BA95F1F794B39A01018002C017
:100B1000220F331F0A94E2F72095292324BBAFEF5D
:100B2000B0E01197F1F700C00000E1C091B39A0165
:100B3000018002C0220F331F0A94E2F7292B21BB48
:100B400092B39A01018002C0220F331F0A94E2F788
:100B50002095292322BBB0E2BA95F1F791B39A010F
:100B6000018002C0220F331F0A94E2F72095292347
:100B700021BBAFEFB0E01197F1F700C00000B7C0A4
:100B800090819130A1F1913038F0923009F45AC03F
:100B9000933009F0ACC081C09AB39A01018002C0C1
:100BA000220F331F0A94E2F7292B2ABB9BB39A0129
:100BB000018002C0220F331F0A94E2F720952923F7
:100BC0002BBBAFEEB0E01197F1F700C000009AB375
:100BD0009A01018002C0220F331F0A94E2F7209588
:100BE00029232ABBB5E3BA95F1F7000080C097B37B
:100BF0009A01018002C0220F331F0A94E2F7292BC9
:100C000027BB98B39A01018002C0220F331F0A94B8
:100C1000E2F72095292328BBAFEEB0E01197F1F75A
:100C200000C0000097B39A01018002C0220F331F59
:100C30000A94E2F72095292327BBB5E3BA95F1F78B
:100C4000000055C094B39A01018002C0220F331FE7
:100C50000A94E2F7292B24BB95B39A01018002C0C4
:100C6000220F331F0A94E2F72095292325BBAFEE0C
:100C7000B0E01197F1F700C0000094B39A01018031
:100C800002C0220F331F0A94E2F72095292324BBC8
:100C9000B5E3BA95F1F700002AC091B39A0101803B
:100CA00002C0220F331F0A94E2F7292B21BB92B313
:100CB0009A01018002C0220F331F0A94E2F72095A7
:100CC000292322BBAFEEB0E01197F1F700C000007E
:100CD00091B39A01018002C0220F331F0A94E2F7F8
:100CE0002095292321BBB5E3BA95F1F7000066955D
:100CF000815009F08FCE08950F931F93CF93DF9308
:100D0000EC018A010E9406058881813021F1813041
:100D100080F1823091F0833009F073C080B390E0AD
:100D2000098002C0959587950A94E2F780FD69C015
:100D30000115110509F057C064C083B390E0098024
:100D400002C0959587950A94E2F780FD5AC0011577
:100D50001105D1F556C086B390E0098002C0959583
:100D600087950A94E2F780FD4CC001151105E9F45E
:100D700048C089B390E0098002C0959587950A9490
:100D8000E2F780FD3EC001151105D9F185E08A9595
:100D9000F1F7000089B390E0098002C0959587952E
:100DA0000A94E2F780FFF2CF2CC085E08A95F1F734
:100DB000000086B390E0098002C0959587950A945B
:100DC000E2F780FFF2CF1DC085E08A95F1F70000C1
:100DD00083B390E0098002C0959587950A94E2F765
:100DE00080FFF2CF0EC085E08A95F1F7000080B356
:100DF00090E0098002C0959587950A94E2F780FFFC
:100E0000F2CFDF91CF911F910F910895FC0120E067
:100E100030E060E070E041E050E08081813009F432
:100E200055C0813038F0823009F49CC0833009F01D
:100E300030C1E4C0AAB3CA01018002C0880F991F63
:100E40000A94E2F78A2B8ABBABB3CA01018002C0C5
:100E5000880F991F0A94E2F780958A238BBB80E262
:100E60008A95F1F7AAB3CA01018002C0880F991FC1
:100E70000A94E2F780958A238ABB90E39A95F1F76A
:100E800089B390E0018002C0959587950A94E2F7B6
:100E900080FD0CC0CA01022E02C0880F991F0A945F
:100EA000E2F7809590956823792309C0CA01022E44
:100EB00002C0880F991F0A94E2F7682B792B8BEDFB
:100EC00090E00197F1F700C00000E3C0A7B3CA01AA
:100ED000018002C0880F991F0A94E2F78A2B87BB12
:100EE000A8B3CA01018002C0880F991F0A94E2F7D3
:100EF00080958A2388BB90E29A95F1F7A7B3CA013F
:100F0000018002C0880F991F0A94E2F780958A2316
:100F100087BB80E38A95F1F786B390E0018002C039
:100F2000959587950A94E2F780FD0CC0CA01022EC0
:100F300002C0880F991F0A94E2F780959095682364
:100F4000792309C0CA01022E02C0880F991F0A9492
:100F5000E2F7682B792B8BED90E00197F1F700C059
:100F6000000097C0A4B3CA01018002C0880F991F76
:100F70000A94E2F78A2B84BBA5B3CA01018002C0A0
:100F8000880F991F0A94E2F780958A2385BB90E227
:100F90009A95F1F7A4B3CA01018002C0880F991F86
:100FA0000A94E2F780958A2384BB80E38A95F1F75F
:100FB00083B390E0018002C0959587950A94E2F78B
:100FC00080FD0CC0CA01022E02C0880F991F0A942E
:100FD000E2F7809590956823792309C0CA01022E13
:100FE00002C0880F991F0A94E2F7682B792B8BEDCA
:100FF00090E00197F1F700C000004BC0A1B3CA0117
:10100000018002C0880F991F0A94E2F78A2B81BBE6
:10101000A2B3CA01018002C0880F991F0A94E2F7A7
:1010200080958A2382BB90E29A95F1F7A1B3CA0119
:10103000018002C0880F991F0A94E2F780958A23E5
:1010400081BB80E38A95F1F780B390E0018002C014
:10105000959587950A94E2F780FD0CC0CA01022E8F
:1010600002C0880F991F0A94E2F780959095682333
:10107000792309C0CA01022E02C0880F991F0A9461
:10108000E2F7682B792B8BED90E00197F1F700C028
:1010900000002F5F3F4F2031310509F0BECE862F73
:1010A000972F0895FC010097C1F081E08083CB0168
:1010B0009770929582958F7089279F708927818379
:1010C0006F70707081E792E0689F9001699F300DAA
:1010D000789F300D1124338322830895379A81EC51
:1010E00087B90895369A349BFECF24B130E045B1DC
:1010F000942F80E0822B932B20912D0130912E0193
:101100002115310559F420912F0130913001820FC2
:10111000931F90932E0180932D0116C040912F01B3
:1011200050913001840F951F8217930738F4215096
:10113000304030932E0120932D0106C02F5F3F4F8A
:1011400030932E0120932D0180912D0190912E013D
:1011500008959093300180932F010895CF93DF93EA
:10116000C82F8150873028F5E0913101CE1709F161
:10117000EE2379F0F0E0EE0FFF1FEE0FFF1FEE0FF2
:10118000FF1FE05AFF4F0480F581E02D82E391E0DC
:101190000995C0933101D0E0CC0FDD1FCC0FDD1FCE
:1011A000CC0FDD1FC05ADF4FEA81FB8182E391E063
:1011B0000995DF91CF91089580933401089580912E
:1011C00031018F5F883009F481E008958091310109
:1011D000815009F487E00895809134011092340120
:1011E0000895AB01E0913101EE2379F0F0E0EE0FCC
:1011F000FF1FEE0FFF1FEE0FFF1FE05AFF4F06808D
:10120000F781E02D62E371E0099508950E94F601EF
:10121000089508950F931F93CF93DF93813009F4BE
:1012200053C0813020F0823009F056C052C00E9475
:1012300072088C0181E190E00E94140EC82FD92F12
:101240008DB79EB70A970FB6F8949EBF0FBE8DBF9D
:10125000EDB7FEB73196ADB7BEB71196CC93D1833B
:1012600080E190E09383828380EA90E09583848399
:10127000C80162E470E00E94000EAC0177836683CF
:1012800027E930E0429FC001439F900D529F900D8F
:10129000112464E670E00E94000E718760870E944E
:1012A000530F8DB79EB70A960FB6F8949EBF0FBE28
:1012B0008DBF8CEB90E06C2F7D2F0E940E038C2F46
:1012C0009D2F0E94AA0E08C00E94DF080E94DC0821
:1012D00003C084E00E94DC08DF91CF911F910F9141
:1012E0000895CF93DF93EC0184E691E00E94700DA6
:1012F000998388830E94F601DF91CF910895FC01C4
:1013000080819181009711F00E94AA0E0895FB013F
:1013100020813181813089F0813048F0823089F03C
:10132000833099F40E94DF080E94DC080895C90107
:1013300063EC70E00E940E03089585E00E94DC08D3
:1013400008950E94E6080E94DC080895CF93DF9379
:10135000EC0183E791E00E94700D998388830E94DD
:10136000F601DF91CF910895FC0180819181009772
:1013700011F00E94AA0E0895FB0120813181813075
:1013800089F0813048F0823089F0833099F40E94EE
:10139000DF080E94DC080895C90164EC70E00E9437
:1013A0000E03089581E00E94DC0808950E94E6087B
:1013B0000E94DC0808950F931F93CF93DF938C0155
:1013C0000E94F60182E090E00E94140EC82FD92FEF
:1013D000F801D183C08380E891E00E94700D998369
:1013E0008883DF91CF911F910F910895CF93DF9361
:1013F000EC01E881F98180819181009711F00E94D0
:10140000AA0E88819981009711F00E94AA0EDF919F
:10141000CF9108950F931F93CF93DF93DB01CD916D
:10142000DC911197813009F443C0813068F082303B
:1014300009F44FC0833009F05BC081E09091E30074
:10144000911180E08093E3008091E300813019F4F2
:1014500025EC30E002C024ED30E0EDB7FEB7389760
:101460000FB6F894FEBF0FBEEDBF319605E311E055
:10147000ADB7BEB712961C930E93119782E190E020
:1014800093838283358324838091E400868317824B
:101490000E94530FEDB7FEB738960FB6F894FEBF13
:1014A0000FBEEDBF88819981B8010E940E0320C054
:1014B0008091E300813029F40E94DF080E94DC085B
:1014C00017C08091E400843698F48F5F8093E40025
:1014D0000FC08091E300813021F487E00E94DC0896
:1014E00007C08091E400823018F081508093E400BE
:1014F000DF91CF911F910F9108950F931F93CF9379
:10150000DF938C010E94F60184E090E00E94140EAB
:10151000C82FD92FF801D183C08381E991E00E94BF
:10152000700D9983888382E190E00E94140E8A8373
:101530009B83DF91CF911F910F9108950F931F937C
:10154000CF93DF938C01FC01C081D1818881998187
:10155000009711F00E94AA0E8A819B81009711F0DA
:101560000E94AA0EF80180819181009711F00E94DB
:10157000AA0EDF91CF911F910F910895CF93DF9322
:10158000DB01CD91DC911197813009F45EC081308F
:1015900068F0823009F46EC0833009F07FC081E0CA
:1015A00090911A01911180E080931A010E947208B3
:1015B0002A813B8140911A01413019F445EE50E0F7
:1015C00002C04FEF50E0EDB7FEB73C970FB6F8946E
:1015D000FEBF0FBEEDBF3196ADB7BEB712963C93BE
:1015E0002E93119722E130E0338322835583448385
:1015F00062E470E00E94000EAC017783668327E905
:1016000030E0429FC001439F900D529F900D1124E6
:1016100064E670E00E94000E7187608780911B0174
:1016200090911C01938782870E94530FEDB7FEB7FC
:101630003C960FB6F894FEBF0FBEEDBF6A817B816A
:10164000888199810E940E0329C080911A018130FE
:1016500029F40E94DF080E94DC0820C080911B0151
:1016600090911C01019690931C0180931B010E9494
:10167000A90814C080911A01813029F40E94E6085B
:101680000E94DC080BC080911B0190911C01019706
:1016900090931C0180931B010E94A908DF91CF91B8
:1016A00008950F931F93CF93DF938C010E94F6014F
:1016B00086E090E00E94140EC82FD92FF801D18344
:1016C000C08380EC91E00E94700D9983888381EB48
:1016D00091E00E94700D9B838A8382EA91E00E94D0
:1016E000700D9D838C83DF91CF911F910F91089591
:1016F0000F931F93CF93DF938C01FC01C081D181A5
:1017000088819981009711F00E94AA0E8A819B819D
:10171000009711F00E94AA0E8C819D81009711F014
:101720000E94AA0EF80180819181009711F00E9419
:10173000AA0EDF91CF911F910F910895DB01ED91DA
:10174000FC911197813001F1813080F0823009F1F4
:10175000833019F581E090914701911180E08093E9
:101760004701813011F4DE9A01C0DE9880819181B9
:1017700020914701222319F46281738102C06481A0
:1017800075810E940E0308950E94DF080E94DC0804
:1017900008950E94E6080E94DC0808950F931F93A5
:1017A000CF93DF938C010E94F60186E090E00E94C7
:1017B000140EC82FD92FF801D183C0838CEE91E08D
:1017C0000E94700D998388838EED91E00E94700DC8
:1017D0009B838A838FEC91E00E94700D9D838C83A4
:1017E000DF91CF911F910F9108950F931F93CF9386
:1017F000DF938C01FC01C081D181888199810097A0
:1018000011F00E94AA0E8A819B81009711F00E941C
:10181000AA0E8C819D81009711F00E94AA0EF801FA
:1018200080819181009711F00E94AA0EDF91CF91E3
:101830001F910F910895DB01ED91FC91119781307B
:1018400001F1813080F0823009F1833019F581E0B7
:1018500090914801911180E080934801813011F40A
:10186000DF9A01C0DF988081918120914801222375
:1018700019F46281738102C0648175810E940E0334
:1018800008950E94DF080E94DC0808950E94E6087F
:101890000E94DC0808950E946E088AE090E00E9491
:1018A000A9080E942D030E941D010E9405020E94AA
:1018B000F60184E60E9446018AB3806C8ABB8BB332
:1018C0008F738BBB81E00E94AE087894C0E0C23376
:1018D00039F480E060E070E00E94F108C0E001C0EF
:1018E000CF5F0E94D803823081F08330D1F0813005
:1018F00019F586E490E068E270E00E94290181E039
:1019000060E070E00E94F10817C086E490E068E2B1
:1019100070E00E94290182E060E070E00E94F1081E
:101920000BC08CE390E060E971E00E94290183E044
:1019300060E070E00E94F1080E94EC08882341F00A
:101940000E94AE0880E060E070E00E94F108C0E014
:101950008FE39CE90197F1F700C00000B8CF8DE05C
:1019600083BF8FEF8CBF89B7826089BF089589B725
:101970008D7F89BF13BE08951F920F920FB60F92ED
:101980001124CF92DF92EF92FF922F933F934F93C8
:101990005F936F937F938F939F93AF93BF93EF93D7
:1019A000FF93809155018F5F809355018D33C1F571
:1019B000C0905101D0905201E0905301F090540139
:1019C000C701B6012CE330E040E050E00E94E10D99
:1019D000DC01CB018093490190934A01A0934B0114
:1019E000B0934C0180914D0190914E01A0914F0117
:1019F000B0915001C80ED91EEA1EFB1EC0924D01C7
:101A0000D0924E01E0924F01F0925001109251019C
:101A100010925201109253011092540110925501EC
:101A2000FF91EF91BF91AF919F918F917F916F91B6
:101A30005F914F913F912F91FF90EF90DF90CF906A
:101A40000F900FBE0F901F9018951F920F920FB618
:101A50000F9211242F933F934F935F936F937F9334
:101A60008F939F93AF93BF93EF93FF930E943503A0
:101A70000E943401FF91EF91BF91AF919F918F919F
:101A80007F916F915F914F913F912F910F900FBE7A
:101A90000F901F9018951F920F920FB60F9211245E
:101AA0008F939F93AF93BF93809151019091520177
:101AB000A0915301B09154010196A11DB11D8093D5
:101AC000510190935201A0935301B0935401BF91DF
:101AD000AF919F918F910F900FBE0F901F9018950F
:101AE0000F931F93CF93DF938C010E944A0F0097AF
:101AF00051F001960E94140EC82FD92FCE01B801C3
:101B00000E94430F02C0C0E0D0E08C2F9D2FDF91D8
:101B1000CF911F910F91089533D088F09F5790F087
:101B2000B92F9927B751A0F0D1F0660F771F881F02
:101B3000991F1AF0BA95C9F712C0B13081F03AD0A6
:101B4000B1E0089537C0672F782F8827B85F39F044
:101B5000B93FCCF3869577956795B395D9F73EF461
:101B600090958095709561957F4F8F4F9F4F089509
:101B700057FD9058440F551F59F05F3F71F047953E
:101B8000880F97FB991F61F09F3F79F08795089523
:101B9000121613061406551FF2CF4695F1DF08C042
:101BA000161617061806991FF1CF8695710561055F
:101BB00008940895E894BB2766277727CB0197F907
:101BC0000895629FD001739FF001829FE00DF11D87
:101BD000649FE00DF11D929FF00D839FF00D749FA7
:101BE000F00D659FF00D9927729FB00DE11DF91F53
:101BF000639FB00DE11DF91FBD01CF0111240895B0
:101C0000AA1BBB1B51E107C0AA1FBB1FA617B70722
:101C100010F0A61BB70B881F991F5A95A9F780953E
:101C20009095BC01CD010895CF93DF93AC01823034
:101C3000910510F442E050E0E0915801F091590113
:101C400020E030E0A0E0B0E024C0808191818417E2
:101C50009507D0F08417950771F4828193811097CE
:101C600029F013969C938E9312972CC09093590150
:101C70008093580127C02115310519F08217930769
:101C800018F49C01BD01EF0192818381DF01E92FEE
:101C9000F82F3097D1F621153105F9F0C901841BD1
:101CA000950B8430910580F48A819B8161157105C3
:101CB00021F0FB019383828304C0909359018093A8
:101CC0005801FE01329642C0FE01E80FF91F419310
:101CD000519302979983888339C0809156019091DE
:101CE0005701009741F480911F019091200190933A
:101CF00057018093560120911D0130911E0121153D
:101D0000310541F42DB73EB7809121019091220118
:101D1000281B390BE0915601F0915701E217F307A8
:101D200098F42E1B3F0B2417350770F0CA0102965A
:101D30002817390748F08E0F9F1F90935701809303
:101D400056014193519302C0E0E0F0E0CF01DF91F2
:101D5000CF9108950F931F93CF93DF939C0100972A
:101D600009F48CC0DC01129713961C921E921297F4
:101D700060915801709159016115710589F48D9137
:101D80009C911197820F931F20915601309157011A
:101D90002817390769F5B0935701A09356016EC013
:101DA000FB0140E050E001C0FC01EA17FB0730F402
:101DB00082819381AF010097B9F71FC0E901229793
:101DC000FB83EA8308811981C901800F911F8E1757
:101DD0009F0759F480819181800F911F029699830A
:101DE0008883828193819B838A834115510529F4DD
:101DF000B0935901A093580141C0FA01B383A28363
:101E0000C191D191EC0FFD1FAE17BF0781F4F9010D
:101E1000929182918C0F9D1F0296DA0111969C93EC
:101E20008E938281938113969C938E931297E0E018
:101E3000F0E002C0FB01BC01DB0112968D919C9188
:101E400013970097B9F7CB0102962D913C9111970A
:101E5000820F931F2091560130915701281739079F
:101E600069F4309729F4109259011092580102C078
:101E7000138212827093570160935601DF91CF91C4
:101E80001F910F910895FB01DC0105900D92002038
:101E9000E1F70895FC0105900020E9F78095909501
:101EA0008E0F9F1F0895AEE0B0E0E9E5FFE00C94CF
:101EB0000F120D891E898F89988D26E02C831A8335
:101EC000098397FF02C080E090E801979E838D838D
:101ED000AE01455E5F4FCE010196698D7A8D0E94FD
:101EE000830F4D815E8157FD0AC02F8138854217CF
:101EF00053070CF49A01020F131FF80110822E965B
:101F0000E4E00C942B12ADE0B0E0E9E8FFE00C94C3
:101F100001123C017D876C875A01FC0117821682F1
:101F2000838181FFC8C12E010894411C511CF3011B
:101F30009381EC85FD8593FD859193FF8191FD87CC
:101F4000EC87882309F4B3C1853241F493FD859170
:101F500093FF8191FD87EC87853229F490E0B301EE
:101F60000E947711E4CFFF24EE2410E01032B0F489
:101F70008B3269F08C3228F4803251F0833271F464
:101F80000BC08D3239F0803349F411602CC01260DF
:101F9000146029C0186027C0106125C017FD2EC02D
:101FA000282F20532A3098F416FF08C08F2D880F51
:101FB000F82EFF0CFF0CF80EF20E15C08E2D880FB8
:101FC000E82EEE0CEE0CE80EE20E10620CC08E3223
:101FD00021F416FD6CC1106406C08C3611F4106833
:101FE00002C0883659F4EC85FD8593FD859193FFF9
:101FF0008191FD87EC87882309F0B8CF982F9554FD
:10200000933018F09052933038F424E030E0A20E70
:10201000B31E3FE339830FC0833631F0833781F03D
:10202000833509F05AC022C0F5018081898322E0FE
:1020300030E0A20EB31E21E0C22ED12C420114C00A
:1020400092E0292E312C2A0C3B1CF50180809180D6
:1020500016FF03C06F2D70E002C06FEF7FEFC40169
:102060000E946C116C0151011F7715C082E0282E6F
:10207000312C2A0C3B1CF5018080918016FF03C097
:102080006F2D70E002C06FEF7FEFC4010E946111FD
:102090006C011068510113FD1CC006C080E290E085
:1020A000B3010E947711EA948E2D90E0C816D906EC
:1020B000A8F30FC0F40117FD859117FF81914F011F
:1020C00090E0B3010E947711E110EA940894C108EE
:1020D000D108C114D10471F7E7C0843611F08936F4
:1020E00051F5F50117FF07C080819181A281B3816D
:1020F00024E030E008C080819181AA2797FDA09557
:10210000BA2F22E030E0A20EB31E012F0F76B7FFE8
:1021100008C0B095A095909581959F4FAF4FBF4F48
:102120000068BC01CD01A2012AE030E00E94A311A9
:10213000D82ED4183FC0853721F41F7E2AE030E026
:1021400020C0197F8F36A9F0803720F4883509F038
:10215000AEC00BC0803721F0883709F0A8C001C09D
:10216000106114FF09C0146007C014FF08C0166096
:1021700006C028E030E005C020E130E002C020E1E8
:1021800032E0F50117FF07C0608171818281938180
:1021900044E050E006C06081718180E090E042E060
:1021A00050E0A40EB51EA2010E94A311D82ED4188F
:1021B000012F0F7706FF09C00E7FDF1430F404FFF4
:1021C00006C002FD04C00F7E02C01D2D01C01F2DE0
:1021D000802F90E004FF0CC0FE01ED0DF11D208169
:1021E000203311F4097E09C002FF06C01E5F05C03E
:1021F00086789070009709F01F5F802E992403FD68
:1022000012C000FF0DC0FD2C1E1550F4FE0CF11A7B
:102210001E2D06C080E290E0B3010E9477111F5F7F
:102220001E15C0F304C01E1510F4E11A01C0EE24FF
:1022300084FE0FC080E390E0B3010E94771182FE1C
:102240001FC081FE03C088E590E010C088E790E0E1
:102250000DC0C40186789070009791F081FC02C097
:1022600080E201C08BE207FD8DE290E0B3010E94A5
:10227000771106C080E390E0B3010E947711FA94D1
:10228000DF14C0F3DA94F201ED0DF11D808190E0CE
:10229000B3010E947711DD20A9F706C080E290E02B
:1022A000B3010E947711EA94EE20C1F740CEF3010A
:1022B0008681978102C08FEF9FEF2D96E2E10C940B
:1022C0001D12FC010590615070400110D8F78095F7
:1022D00090958E0F9F1F0895FC01615070400190F2
:1022E0000110D8F7809590958E0F9F1F08950F933A
:1022F0001F93CF93DF938C01EB018B8181FF1BC078
:1023000082FF0DC02E813F818C819D812817390766
:1023100064F4E881F9810193F983E88306C0E885D4
:10232000F985802F0995009731F48E819F81019660
:102330009F838E8302C00FEF1FEFC801DF91CF9103
:102340001F910F910895FA01AA27283051F12031E9
:1023500081F1E8946F936E7F6E5F7F4F8F4F9F4F39
:10236000AF4FB1E03ED0B4E03CD0670F781F891F7B
:102370009A1FA11D680F791F8A1F911DA11D6A0F49
:10238000711D811D911DA11D20D009F468943F91FC
:102390002AE0269F11243019305D3193DEF6CF01FB
:1023A0000895462F4770405D4193B3E00FD0C9F7C1
:1023B000F6CF462F4F70405D4A3318F0495D31FD2E
:1023C0004052419302D0A9F7EACFB4E0A695979581
:1023D000879577956795BA95C9F700976105710557
:1023E00008959B01AC010A2E0694579547953795A1
:1023F0002795BA95C9F7620F731F841F951FA01DFB
:1024000008952F923F924F925F926F927F928F9298
:102410009F92AF92BF92CF92DF92EF92FF920F9373
:102420001F93CF93DF93CDB7DEB7CA1BDB0B0FB67D
:10243000F894DEBF0FBECDBF09942A88398848883A
:102440005F846E847D848C849B84AA84B984C884D0
:10245000DF80EE80FD800C811B81AA81B981CE0FC7
:10246000D11D0FB6F894DEBF0FBECDBFED010895AC
:04247000F894FFCF0E
:1024740000000000000000000100060909090A0923
:102484000200CE0BF50B1B0C0300510B780B9E0BBB
:102494000400A609B409BC090500DB09F6090A0A07
:1024A40006007D0A9E0ABE0A070071097F09870992
:1024B400252E32752E252E327556202020202020E0
:1024C400202020202020202020202000524564525B
:1024D40041570000002020202020202575202020A6
:1024E4002020200020202020203C25753E20202074
:1024F4002020000101252E32752E252E32755620FE
:102504002020252B69202020202020202020002589
:102514002E32752E252E3275562020203C252B690F
:102524003E20202020202020200001010000005A0D
:042534000120000082
:00000001FF
